:020000040800F2
:10000000303800202101000881150008B50E0008D5
:10001000F5110008A50A0008513C00080000000086
:100020000000000000000000000000005130000847
:10003000830C000800000000870100082933000835
:100040003B0100083B0100083B0100083B010008A0
:100050003B0100083B0100083B0100083B01000890
:100060003B0100083B0100083B0100083B01000880
:100070003B0100083B0100083B0100083B01000870
:100080003B0100083B0100083B0100083B01000860
:100090003B0100083B0100083B0100083B01000850
:1000A0003B0100083B0100083B0100083B01000840
:1000B0003B010008BD330008000000003B010008C0
:1000C0003B01000800000000000000003B010008A8
:1000D00000000000A1380008A93900080000000055
:1000E0003B0100083B0100083B010008DFF80CD091
:1000F00000F0ACF900480047113F000830380020FC
:10010000EFF30980704780F309887047EFF30880A8
:10011000704780F30888704740BA7047C0BA70478C
:100120000648804706480047FEE7FEE7FEE7FEE791
:10013000FEE7FEE7FEE7FEE7FEE7FEE751330008D5
:10014000ED000008EFF3108072B6704780F310885E
:1001500070471D484FF0FF010170002080F30988AF
:100160001A48012101701A484FF08051016062B6AF
:10017000FEE717484FF080510160704714484FF078
:1001800080510160704772B6EFF3098028B12038C2
:1001900080E8F00F0F490968086000B50E488047F5
:1001A0005DF804EB0D480E490A78027009480D49C4
:1001B0000A680260106890E8F00F203080F3098828
:1001C0004EF0040E62B6704722ED00E0860000207B
:1001D00004ED00E08C000020A11F00087B0000203F
:1001E0007C0000209400002072B6704762B6704711
:1001F000EFF3108072B6704780F310887047B0FA42
:1002000080F0704790FAA0F0704730BF704720BF71
:100210007047F0B4144620F0004621F0004100F091
:1002200000428E4205D230460E4601460CB182F0A5
:10023000004219B946EA0200F0BC7047C6F3C75342
:10024000C1F3C7501D1AC6F3160040F40000202D5C
:1002500014DAC1F3160141F40001002C21FA05F46F
:1002600002D0A0EB040000E02044C5F1200401FA14
:1002700004F108D0494206D0401E04E014B14FF00A
:10028000FF31F9E70121F0BC00F0BBB890EA0102B0
:1002900001D5012200E00022BBE790EA010201D56E
:1002A000002200E00122B4E703460846594001D588
:1002B000002200E001221946ABE780EA010210B5F6
:1002C00002F00042400001D04B0001D1002010BDDF
:1002D0004FEA106101EB1361C0F35600C3F35603FC
:1002E00040F4000043F40003A0FB03307F394FEAE1
:1002F00000401C0400D0401C50EA134001D44000D0
:10030000491EC3B20C0604EBD010401C4008802BE1
:1003100001D120F00100002900DA0020104310BDB7
:10032000F0B480EA010230F0004302F0004221F014
:10033000004000D010B9F0BC00207047C0F3C75592
:10034000C3F31601C3F3C756731BC0F3160040F482
:1003500000047E3341F400014FF080750020A1427B
:1003600001D3091B28436D084FEA4101F7D151B170
:10037000A14202D14FF0004105E002D24FF001014D
:1003800001E06FF00101F0BC00F03BB896230022C1
:10039000114600F036B800F0004220F00040C10DD8
:1003A000C0F3160040F400007F2901DA00207047F6
:1003B000962903DCC1F19601C84001E096398840D6
:1003C000002AF4D040427047002801DBC0F1004011
:1003D000002901DBC1F1004181427047002801DBA7
:1003E000C0F10040002901DBC1F1004188427047A3
:1003F000002905DA401CB1F1004F01D120F00100C5
:10040000704730B450EA01040BD130BC0020704773
:1004100001F0010545EA510141EAC07140085B1C49
:1004200001E04FF08074A042F2D24FF4000404E0E7
:10043000400040EAD17049005B1EA042F8D300EBB7
:10044000C350A0F5000030BC1044D1E7064C074D66
:1004500006E0E06840F0010394E807009847103494
:10046000AC42F6D3FFF746FE304100085041000889
:1004700070B58C1810F8015B15F0070301D110F866
:10048000013B2A1106D110F8012B03E010F8016B93
:1004900001F8016B5B1EF9D12B0706D4002301E0A4
:1004A00001F8013B521EFBD50AE010F8013BCB1AC4
:1004B000921C03E013F8015B01F8015B521EF9D5B1
:1004C000A142D7D3002070BD2DE9F05F04460D4650
:1004D0004FF0000A4FF6FF7BA01CC4B2D0460027A5
:1004E00039E08021214800F064FC4FF0000900BF92
:1004F00004211E4800F05DFC04211C4800F05BFC58
:100500001A4800F049FC00F0400609F101001FFA0A
:1005100080F91EB942F210708145E9DB8021134851
:1005200000F049FC022003F0A7FC42F21070814564
:100530000CDA4FF4504000F03DF80646564500DD19
:10054000B2465E4500DAB346B04402E00020BDE8A2
:10055000F09F781C87B2A742C3DBA8EB0A08A8EB80
:100560000B08C5F800800120F1E7000000080140F9
:1005700010B540F2FC6404F5604084B2642003F0DE
:100580007BFC204600F06CF8642003F075FC2046EC
:1005900000F066F8642003F06FFC601C80B200F08D
:1005A0005FF8642003F068FC601C80B200F058F82B
:1005B00010BD00002DE9F04104460025202120480F
:1005C00000F0F7FB022003F057FCA84627E004F4F4
:1005D000004727B910211A4800F0EBFB03E0102177
:1005E000174800F0E8FB6004040C0421144800F0F4
:1005F000E2FB134800F0D0FBC0F3C0060421104812
:1006000000F0D7FB6804050C16B145F0010502E0C7
:100610004FF6FE70054008F1010000F0FF08B8F148
:10062000100FD4DB1021064800F0C5FB2021044840
:1006300000F0C1FB022003F01FFC2846BDE8F0815A
:100640000008014010B50446012C03D1002000F041
:1006500007F803E04FF4805000F002F810BD0000EE
:1006600070B504462021154800F0A3FB002616E0D3
:1006700004F4004525B91021104800F09AFB03E06E
:1006800010210E4800F097FB04210C4800F093FB6A
:1006900004210A4800F08DFB6004040C761C102E27
:1006A000E6D32021054800F086FB0421034800F032
:1006B00080FB1021014800F07EFB70BD0008014066
:1006C00030B504466088A588A84201D1208878B951
:1006D00060880B546088904203D26088401C608020
:1006E00001E0002060802088401C2080012030BD77
:1006F0000020FCE700B587B09DF8180006900120A7
:1007000001F022F986490860002001F01DF98549B1
:100710000860002001F018F98349086003230022D3
:1007200042218248CDE90323CDE90101382300F5B8
:10073000827200217E48009301F080FA06903923EE
:100740007A4A121F00217B4801F024FA0690032305
:1007500000224E217848CDE90323CDE90101292368
:1007600000F59A7200217548009301F067FA06902F
:1007700003230022CA217248CDE90323CDE90101F8
:10078000282300F5497200216E48009301F056FAC3
:100790000690032300224E216B48CDE90323CDE9C7
:1007A0000101362300F59A7200216848009301F098
:1007B00045FA06900323002242216548CDE9032330
:1007C000CDE90101272300F58272002161480093E1
:1007D00001F034FA0690032300224E215E48CDE951
:1007E0000323CDE901012F2300F59A7200215B4814
:1007F000009301F023FA0690032300229D2158481C
:10080000CDE90323CDE90101302300F51C7200215D
:100810005448009301F012FA069003230022A62107
:100820005148CDE90323CDE90101312300F52572BB
:1008300000214E48009301F001FA069003230022A4
:100840005A214B48CDE90323CDE90101322300F5BC
:10085000B27200214748009301F0F0F9069003239B
:1008600000227A214448CDE90323CDE90101332355
:1008700000F5F27200214148009301F0DFF9069083
:100880000323002256213E48CDE90323CDE901018F
:10089000342300F5AA7200213A48009301F0CEF902
:1008A000069006AA38A1382001F034FA06AA38A129
:1008B000392001F02FFA06AA37A1292001F02AFADF
:1008C00006AA37A1362001F025FA06AA36A127206C
:1008D00001F020FA06AA36A1312001F01BFA06AA7F
:1008E00035A12F2001F016FA06AA36A1282001F022
:1008F00011FA06AA35A1302001F00CFA06AA36A199
:10090000322001F007FA06AA36A1332001F002FADC
:1009100006AA37A1342001F0FDF907B000BD0000A0
:100920001C00002020000020240000200C0E0020CD
:100930005335000841350008CC0A00202D35000849
:10094000140F00206D370008940900201F3500089F
:100950008C080020113500083C12002025380008C2
:100960007413002039360008F4050020D93400083B
:10097000E8150020293700085017002071350008BD
:10098000381900209D3600085461736B30303600F2
:100990005461736B303035005461736B3030340008
:1009A0005461736B303033005461736B30303200FC
:1009B0005461736B303031005461736B56697250FF
:1009C000776D00005461736B547300005461736B56
:1009D0004D6F6462757300005461736B54696D658B
:1009E000507200005461736B486561740000000030
:1009F0005461736B5374617475730000704710B564
:100A0000FFF778FE10BD70477047000010B54FF437
:100A1000C06000F0F1FD00F038F900F04DFA01F08F
:100A200013FD00214FF4165000F00CFB0AA002F059
:100A300087FB01F083F8FFF7E2FF642300221146F1
:100A4000104601F0F1FA00BF00231A4601211846B2
:100A500001F0EAFAF8E700005541525431204F4BBB
:100A60000D0A000070477047704700000348008877
:100A700040F001000249A1F8340C7047346C00408A
:100A80000060004002460021014911440888704777
:100A9000006C00400022024A0244116070470000CE
:100AA000006C004000BFFEE72DE9FF4F83B0044615
:100AB0000D461646109F4FF00008002001906FF081
:100AC0007F4000904FF0000A26E002A90520FFF7C2
:100AD000FBFC834605210298B0FBF1F00290BBF1CC
:100AE000000F09D12448D0F8B801401C2249C1F8B0
:100AF000B80107B0BDE8F08F02988044DDE901102D
:100B0000884201D90298019000990298884201D246
:100B1000029800900AF1010AA01C8245D5D30198E1
:100B2000A8EB00080098A8EB0008B8FBF4F843F223
:100B30008130804510D9A8EB00084046FFF726FC1D
:100B400081460E494846FFF7EBFB81464846069929
:100B5000FFF79CFB814601E04FF00009294648461B
:100B6000FFF7ABFB814631464846FFF78FFB8146D6
:100B7000C7F80090BDE70000182E00200000904349
:100B80001CB5044618A103C9CDE900011DF80400F5
:100B900000F00100012804D12021154800F00BF9D4
:100BA00003E02021124800F004F91DF8040000F0D1
:100BB0000200022804D101210E4800F0FCF803E0F5
:100BC00001210C4800F0F5F81DF8040000F00400C5
:100BD000042804D10221074800F0EDF803E00221C7
:100BE000044800F0E6F81CBD0402010005030607F6
:100BF00000100140000C014010B51C4800F0CCF87A
:100C00001B490870481C0078097888421BD1184895
:100C1000801C00781649491C0978884213D1144871
:100C2000C01C00781249891C097888420BD11048F1
:100C3000001D00780E49C91C0978884203D10C4870
:100C400000780C4908700A48C01C00780849091D42
:100C50000870881E0078491E0870881E0078491E9A
:100C60000870881E0078491E087010BD00100140F1
:100C70001200002028000020002202804280828092
:100C8000704770477047704770477047F0B5002253
:100C90000023002400250026002791F803C00CF053
:100CA0000F0291F803C01CF0100F03D091F802C09E
:100CB0004CEA0202B1F800C01CF0FF0F31D0066808
:100CC00000242BE04FF0010C0CFA04F5B1F800C041
:100CD0000CEA0503AB4220D1A5004FF00F0C0CFA33
:100CE00005F7BE4302FA05FC4CEA060691F803C07C
:100CF000BCF1280F06D14FF0010C0CFA04FCC0F82F
:100D000014C00AE091F803C0BCF1480F05D14FF0C0
:100D1000010C0CFA04FCC0F810C0641C082CD1D3E0
:100D20000660B1F800C0BCF1FF0F34DD4668002456
:100D30002EE004F1080C4FF0010E0EFA0CF5B1F89C
:100D400000C00CEA0503AB4221D1A5004FF00F0C07
:100D50000CFA05F7BE4302FA05FC4CEA060691F8C8
:100D600003C0BCF1280F05D104F1080C0EFA0CFEEB
:100D7000C0F814E091F803C0BCF1480F07D104F1AA
:100D8000080C4FF0010E0EFA0CFEC0F810E0641CC7
:100D9000082CCED34660F0BD0146886880B270470B
:100DA0000246002093680B4201D0012000E00020A1
:100DB00070474161704701617047000070B502469D
:100DC000FF23FF2409E012F8010B80EA030507481E
:100DD000405D80EA04030648445D0800A1F1010675
:100DE000B1B2F0D144EA032070BD0000C60000207B
:100DF000C601002030B504462088002816DDA088F2
:100E0000085C1870A088904203D2A088401CA08083
:100E100001E00020A0802088401E2080A0886588F6
:100E2000A84201D100202080012030BD0020FCE735
:100E300010B51C4890F8020368B11A488088002851
:100E400004DD184881880A3000F0A4FA0020154912
:100E5000888081F80203134890F8030370B11148A9
:100E6000C088002805DD0F48C18800F2071000F097
:100E700091FA00200B49C88081F80303094890F8D3
:100E8000040370B107480089002805DD0548018981
:100E900000F5017000F07EFA00200249088181F817
:100EA000040310BD243100200146C1F3074252065D
:100EB000100E704700BFFEE708B50121042001F0C5
:100EC000ABFF4920ADF8000048208DF803006946CB
:100ED0005748FFF7DBFE4FF4DB70ADF8000003204E
:100EE0008DF8020010208DF8030069465048FFF786
:100EF000CDFE4FF40070ADF8000003208DF8020025
:100F000018208DF8030069464948FFF7BFFE4FF4EB
:100F10008060ADF8000048208DF803006946444821
:100F2000FFF7B4FE0121082001F076FF4020ADF864
:100F3000000003208DF8020014208DF8030069469C
:100F40003C48FFF7A3FE8020ADF8000003208DF899
:100F5000020014208DF8030069463648FFF796FE1C
:100F60000320ADF800008DF8020010208DF803007A
:100F700069463048FFF78AFE4FF44070ADF8000034
:100F800003208DF8020014208DF8030069462948DB
:100F9000FFF77CFE0121102001F03EFF4FF4787036
:100FA000ADF8000003208DF8020010208DF803003A
:100FB00069462148FFF76AFE0F20ADF8000048207F
:100FC0008DF8030069461C48FFF760FE01212020D0
:100FD00001F022FF4FF47F40ADF8000003208DF8B0
:100FE000020010208DF8030069461448FFF74EFEFA
:100FF0003F20ADF8000003208DF8020010208DF88E
:10100000030069460D48FFF741FE0121402001F031
:1010100003FF4FF4DE40ADF8000003208DF802001E
:1010200010208DF8030069460548FFF72FFE08BD24
:1010300000080140000C0140001001400014014074
:101040000018014030B585B004460D4601218803E3
:1010500001F0E2FE01940020ADF80800ADF80A00AE
:10106000ADF80C50ADF810000C20ADF80E0001A941
:101070000F4802F003FD01210D4802F0A5FC2520D8
:101080008DF8000002208DF8020001208DF8030089
:10109000684600F077FA02F067FD02F075FC012265
:1010A00040F22551024802F0C5FC05B030BD0000F9
:1010B000003801401FB50121022001F09DFE1920DA
:1010C000ADF804004720ADF800000020ADF80600A0
:1010D000ADF8020069460F4802F0ACF900210D4856
:1010E00002F0A6F9012211460A4802F095F9012101
:1010F000084802F074F91D208DF80C0000208DF8CE
:101100000D008DF80E0001208DF80F0003A800F0EF
:1011100039FA1FBD0004004070B501214FF0C050E6
:1011200001F06AFE012001F061FEFFF79FFC08203C
:10113000FFF7A8FC04460C20FFF7A4FC054600219D
:101140000820FFF7A7FC00210C20FFF7A3FC162CBA
:1011500000D070BD192D00D0FBE7024800F010F858
:10116000F7E7000000F0FF1F10B5044621460820F5
:10117000FFF790FCE01C81B20C20FFF78BFC10BD48
:1011800070B5044626683046FEF7C3FF201D40F0C8
:101190000105A84770BD000070B50126002521E0BB
:1011A00000240BE0211D88B201F044FF0F490855CF
:1011B0000846005D0E490855601C84B2142CF1DB12
:1011C0000A48807CB02804D11421094802F096FD19
:1011D00006460EB1002070BD0549012002F006FE52
:1011E000681CC5B2032DDBDB0120F4E7022E0020D2
:1011F000EC2D002000BFFEE710B54048D0F8BC0140
:1012000000B910BD3D48D0F8BC01212851D00CDCFC
:1012100003281FD004DC012810D002286CD111E073
:1012200015281FD0162867D12EE02D2842D05B2824
:1012300041D05F284BD062285ED154E0062030496F
:10124000088059E02F480088002802DD06202E493A
:10125000088051E02A480088002802DD062029493C
:10126000088049E02848008800280CDD2348D0F891
:10127000BC01C01C2149C1F8BC0142F6E06000F08D
:1012800093FE01F0F1FF37E01F48008800280FDDD2
:101290001A48D0F8BC01C01C1849C1F8BC0116207E
:1012A000FFF762FF42F6E06000F07EFE01F0DCFF37
:1012B00022E021E020E014480088002806DD01201B
:1012C0001249087000200D49C1F8BC0114E00E4815
:1012D0000088002806DD02200C490870002007491C
:1012E000C1F8BC0108E008480088002803DD0020A0
:1012F0000249C1F8BC0100BF00BF82E7182E0020E0
:101300002A0000202C0000202E000020C000002019
:10131000002009498880C8800881412081F80103A4
:10132000002081F8020381F8030381F804030520FB
:101330000880002048807047243100202DE9F05FAC
:1013400082460C4693461D46E078A17800EB0120CA
:1013500086B26079217900EB01201FFA80F87004D1
:10136000070C0B4800EB070920782870607868703C
:101370004FEA4840010CAA1C484602F0CCFC03226C
:1013800002EB480081B2284602F047FDBDE8F09F1D
:10139000182E00202DE9F04104460E461748D0F8DB
:1013A000C001C1B22078814201D0BDE8F081022E97
:1013B00008DA0121204602F043FD012110A002F0CD
:1013C0003FFDF2E7207800F00307B01E81B220460F
:1013D000FFF7F4FC0546A01910F8010CA11911F84B
:1013E000021C00EB0121A94200D0DEE7B01E82B250
:1013F0002146384602F0A8FCD7E70000182E00204E
:10140000800000000021234A5180114691F8011309
:1014100041292AD0422914D0432925D1114691F8D7
:10142000041369B911460989FA2909DA11460A89AA
:1014300001F50171885417490989491C154A118120
:1014400025E0144991F8031369B91249C988FA29AA
:1014500009DA1049CA8801F2071188540D49C98870
:10146000491C0C4AD18012E000BF0A4991F80213CE
:1014700061B908498988FA2908DA06498A880A314F
:1014800088540A398988491C024A918000BF00BFEC
:1014900070470000243100202148408820490988F5
:1014A000884237DD1E4890F80103412804D04228C5
:1014B0000ED0432824D117E019488088002806DD83
:1014C0004220174981F80103012081F802031CE042
:1014D0001348C088002806DD4320114981F8010324
:1014E000012081F8030310E00D480089002806DD83
:1014F00041200B4981F80103012081F8040304E035
:101500004120074981F8010300BF00BF00200449C2
:10151000488004E002484088401C014948807047E8
:10152000243100202DE9F05F83460C461D46E0780B
:10153000A17800EB012086B26079217900EB0120CF
:101540001FFA80F894F806907004070C0B4800EB23
:10155000070A08F0FF025146E01D02F04AFC20781D
:10156000287060786870AA1C4146304602F0E2FBA1
:101570000621284602F051FCBDE8F09F182E0020FD
:101580007047000070B5002100230F22C4780CB30F
:10159000164C246804F4E064C4F5E064210AC1F147
:1015A0000403CA40447804FA03F1847814402143C8
:1015B00009010F4C0678A155047804F01F05012499
:1015C000AC4005786D114FF0E02606EB8505C5F8B7
:1015D000004109E0047804F01F040125A540054CF2
:1015E0000678761144F8265070BD00000CED00E03E
:1015F00000E400E080E100E002490143024A11609A
:10160000704700000000FA050CED00E01D481E4880
:101610001E481F481F48204820482148214822488A
:10162000224823482348244824482548254826485A
:1016300026482748274828482848294829482A482A
:101640002A482B482B482C482C482D482D482E48FA
:101650002E482F482F4830483048314831483248CA
:10166000324833483348344834483548354836489A
:10167000364837483748384838483948394800BF2D
:1016800070470000BC3F0008C03F0008C63F00088C
:10169000C83F0008C43F0008CA3F0008CC3F00080C
:1016A000CE3F0008D03F0008D23F0008D43F0008DA
:1016B000D63F0008D83F0008DA3F0008DC3F0008AA
:1016C000DE3F0008E03F0008E23F0008E43F00087A
:1016D000E63F0008E83F0008EA3F0008EC3F00084A
:1016E000EE3F0008F03F0008F23F0008F43F00081A
:1016F000F63F0008F83F0008FA3F0008FC3F0008EA
:10170000FE3F0008004000080240000804400008B6
:1017100006400008084000080A4000080C40000885
:101720000E4000081240000814400008164000084F
:10173000184000082C2A0020AC2D00201C40000876
:101740001E400008204000082240000824400008F5
:1017500026400008284000082A4000082C400008C5
:101760001A4000082E4000082DE9F04104460D46BD
:10177000164600271CB904203070BDE8F08115B969
:101780000C203070F9E71148007810B11220307049
:10179000F3E72078012808D0022807D0032802D0D8
:1017A000042804D100E000BF00BF00BF02E0012018
:1017B0003070E2E700BFFEF7C5FC074665613846BA
:1017C000FEF7C4FC00203070D7E70000790000204D
:1017D00010B500F019F800F0A9FF00F0D1FF00F0FB
:1017E000F1FF00F073FF00F045FF01F085F801F014
:1017F000AFF801F027F801F04DF800F0E9FC00F037
:1018000009F8FFF703FF10BD002001490880704769
:101810005C0000207047000010B500241A480078D2
:10182000012830D1FEF78EFC04461848007820B11C
:1018300016480078401E1549087014480078F8B919
:1018400013480078E0B901F0E5F812481249097828
:1018500050F82100114908600F48007810490978B4
:1018600088420DD00D480068C06B401C0B490968C8
:10187000C8630C480068401C0A490860FEF77EFCFB
:101880002046FEF763FC10BD860000207900002092
:101890007A000020BC1F00207C0000209400002063
:1018A0007B0000206000002010B500240B48007869
:1018B000012811D1FEF746FC04460948007840B9DA
:1018C00008480078FF2804D206480078401C0549E3
:1018D00008702046FEF73AFC10BD0000860000208C
:1018E000790000207A00002010B500241348007809
:1018F000012821D1FEF726FC044611480078C0B12A
:101900000F480078401E0E4908700846007860B9FC
:101910000C48007828B92046FEF718FC01F040F882
:101920000AE02046FEF712FC06E02046FEF70EFC19
:1019300002E02046FEF70AFC10BD000086000020F1
:101940007A0000207900002070B504460026104877
:10195000007808B1002070BDFEF7F4FB06460D4884
:101960000568006820B10B480068406809490860B4
:101970003046FEF7EBFB4DB1032028702C81002090
:10198000686005A06861284600F066FE2846E2E728
:1019900079000020640000203F0000002DE9F041A4
:1019A00004460D46164600271CB904203070BDE8D9
:1019B000F0812078032802D001203070F7E7324808
:1019C000007810B102203070F1E73048007810B193
:1019D0000D203070EBE7FEF7B5FB0746208940B1DC
:1019E0002089401E20813846FEF7B0FB0020307071
:1019F000DDE72748006890F8340040F001002449F2
:101A0000096881F8340000202149096881F835000F
:101A10001F4800680563204600F0DCFD3846FEF7ED
:101A200095FB00F0BDFFFEF78DFB074618480068E8
:101A300090F8350020B1012809D0022806D102E033
:101A4000002030700BE00E20307008E000BF21460F
:101A50000F48006800F07EFD0A20307000BF00BF14
:101A600000200B49096881F834000949096881F8A8
:101A7000350007490968C8610549096808623846A0
:101A8000FEF764FB93E70000790000207A00002055
:101A90008C00002070B5044600250CB9042070BDF0
:101AA0002078032801D00120F9E7FEF74BFB05461B
:101AB000A07A60B1002301221946204600F0F6FC0E
:101AC0002846FEF743FB00F06BFF0020E7E7208984
:101AD0004FF6FF71884207D22089401C208128469A
:101AE000FEF734FB0020DAE72846FEF72FFB332011
:101AF000D5E7000010B50B48007890B900F08AFFD8
:101B0000094800780949087009480749097850F8D8
:101B10002100084908600846006807490860FEF788
:101B200018FB10BD860000207C0000207B000020F8
:101B3000BC1F0020940000208C00002010B5002461
:101B4000022000F031FAFEF7FDFA044600200B49AE
:101B500008602046FEF7FAFAC82000F025FAFEF7E2
:101B6000F1FA044605480068054908600120054966
:101B700008702046FEF7EAFA10BD00008800002039
:101B8000700000207800002010B504462046FEF7C3
:101B900035FF10BD2DE9FE4F04460D46164698460A
:101BA0004FF00009B8F13F0F02D92A20BDE8FE8F9F
:101BB000FEF7C8FA81461E48007820B14846FEF775
:101BC000C5FA3C20F2E71B4850F8280058BB01201A
:101BD000184941F828004846FEF7B8FA0023324673
:101BE0002946204600F02CF98246002300930193F9
:101BF0001A4651464046029300F022FF074637B985
:101C00000D48007801280CD100F0CAFE09E0FEF76B
:101C100099FA81460020074941F828004846FEF716
:101C200095FA3846C2E74846FEF790FA2820BDE705
:101C300079000020BC1F0020860000202DE9F04F15
:101C400087B004460D4616461F46DDE912ABDDE9B6
:101C50001089002004903F2F03D92A2007B0BDE847
:101C6000F08FFEF76FFA04902248007820B10498B4
:101C7000FEF76CFA3C20F1E71F4850F827000028D7
:101C800032D101201C4941F827000498FEF75EFA82
:101C900051464846149A01F007F832462946204634
:101CA000149B00F0CDF80690149BCDE900AB029395
:101CB00043464A463846069900F0C2FE059005980C
:101CC00030B90E48007801280CD100F069FE09E017
:101CD000FEF738FA04900020074941F827000498DD
:101CE000FEF734FA0598B9E70498FEF72FFA282092
:101CF000B4E7000079000020BC1F0020860000200F
:101D000010B504462046FEF77EFE10BD10B5FEF766
:101D10007BFE10BD2DE9F04104460D4616464FF0FE
:101D200000083F2C05D9FF2C03D02A203070BDE8D5
:101D3000F08115B90C203070F9E71448007810B123
:101D400012203070F3E7FEF7FDF98046FF2C03D137
:101D50000F48006890F836400E4850F824702FB9AC
:101D60004046FEF7F3F943203070E0E7012F05D13C
:101D70004046FEF7EBF943203070D8E73D6540461A
:101D8000FEF7E4F900203070D1E700007900002070
:101D90008C000020BC1F002010B5FEF763FE10BDB4
:101DA0002DE9F04704460D464FF0000A3F2C04D9B8
:101DB000FF2C02D02A20BDE8F0870DB90920FAE7F0
:101DC000002028606860FEF7BDF98246FF2C03D131
:101DD0001948006890F83640184850F8246026B931
:101DE0005046FEF7B3F94320E5E7012E04D15046F3
:101DF000FEF7ACF94320DEE7308A10F0010F04D182
:101E00005046FEF7A3F94520D5E74FF00008D6F875
:101E10000C90B7685046FEF799F901E008F1010807
:101E200002CF0029FAD04FEA88002860A9EB080009
:101E3000800068600020BEE78C000020BC1F0020EE
:101E400070B5044610464FF080750560051F2846A2
:101E50002C606FF00105061F304635604FF01235DB
:101E6000061F304635604FF00335061F304635609B
:101E70004FF00235061F304635606D10061F3046A4
:101E80003560051F284629604FF01135061F304682
:101E900035604FF01035061F304635604FF009357C
:101EA000061F304635604FF00835061F3046356056
:101EB0004FF00735061F304635604FF00635061FD8
:101EC000304635604FF00535061F304635604FF01F
:101ED0000435061F3046356070BD00002DE9F04125
:101EE00004464FF000083F2C02D14720BDE8F081A6
:101EF0003F2C03D3FF2C01D02A20F7E7FEF722F96D
:101F00008046FF2C05D12248006890F83640012514
:101F100008E01F48006890F83600A04201D1012572
:101F200000E000251B4850F8247027B94046FEF712
:101F30000DF94820DAE7012F04D14046FEF706F9F3
:101F40004320D3E797F838601348805D97F839103D
:101F5000C943C9B20840104988550846805D40B958
:101F600097F83A00C043C0B20C49097808400B49C1
:101F7000087097F8340040F0080087F834004046B5
:101F8000FEF7E4F8012D01D100F00AFD0020ADE7D5
:101F90008C000020BC1F00207E0000207D0000205F
:101FA00010B5FEF760FD10BD70B504460026194857
:101FB000007800B170BD1848007800B1FAE73CB372
:101FC000FEF7C0F806461548006890F838501448E7
:101FD000405D1249096891F83910C943C9B20840F7
:101FE0000F4948550846405D50B90C48006890F8C4
:101FF0003A00C043C0B20B4909780840094908704B
:102000000648006804633046FEF7A0F800F0C8FCFC
:10201000D0E70000790000207A0000208C0000202A
:102020007E0000207D0000202DE9F04104460D4691
:1020300016461F461B48007810B15520BDE8F081B8
:102040001948007808B13220F8E724B91DB916B94B
:102050000FB95420F2E73B2D01D95120EEE73B2E7A
:1020600001D95220EAE7B7F57A7F01D35320E5E79B
:102070004FF4FA6107FB01F04910B0FBF1F14FF4A6
:1020800061606043C5EB051200EB8200304400EB59
:102090004002C2EBC01001EB00184046FFF784FF7E
:1020A0000020CBE7790000207A00002070B50026E0
:1020B00000F070F8FEF746F8064630480068401C0D
:1020C0002E4908603046FEF741F82D480078012877
:1020D00053D12C48007820B1012804D0022809D11E
:1020E00003E001250BE0002509E001250120254939
:1020F000087004E0012500202249087000BF00BFDD
:1021000005B970BD2048046833E0FEF71BF80646A9
:10211000206B50B3206B401E2063206B28BB94F8CB
:10212000340010F0370F08D014F8340F00F0C80056
:10213000207001206070343C02E0002084F83500FB
:1021400094F8340010F0080F0FD13834A0780F49FC
:10215000097808430D49087020780D49085C6178BA
:10216000084314F838190A4A505464693046FDF798
:10217000EDFF94F836003F28C7D1C2E7A800002041
:10218000860000209C000020980000207D00002098
:102190007E00002010B5FEF767FC07480088401C51
:1021A0000549088008460088C82803D30020088015
:1021B00000F004F810BD00005C00002010B50348DA
:1021C0000068FFF767FC0446204610BDB8000020F9
:1021D000F8B54FF42071284800F084FB40212748CF
:1021E00000F080FB002414E0601C87B204EB840044
:1021F000214901EBC00507EB870001EBC006642015
:102200002870002085F82500EE601DA02862601C63
:1022100084B20F2CE8D304EB8400174901EBC0050E
:1022200064202870002085F82500E86014A028624A
:1022300000201449086014490880102013490880C0
:102240000D48134908600120FFF77EFB1149086023
:102250000020FFF779FB104908606A460FA10D487E
:102260000068FFF781FA6A4611A10B480068FFF782
:102270007BFA00F027F8F8BD2C2A0020AC2D0020B6
:102280003F000000B0000020AE000020AC000020A5
:10229000BC000020B4000020B800002075432F4F80
:1022A000532D494920546D724C6F636B0000000040
:1022B00075432F4F532D494920546D725369676EF2
:1022C000616C000000B587B00323002240210B4859
:1022D000CDE90323CDE901014FF6FD7300933D23C2
:1022E00000F1FC0200210648FFF7A8FC06AA05A1A0
:1022F0003D20FFF70FFD07B000BD0000AC2C002013
:102300008123000875432F4F532D494920546D7286
:102310000000000070B5032580F82550012905D183
:10232000154EC5693668354445610CE085692DB99F
:10233000114EC56936683544456104E00E4E856925
:10234000366835444561456905F007030B4D05EBDB
:10235000C30425682DB920600025C5600125A5802E
:1023600006E022682060C2601061A5886D1CA5800F
:102370000025056170BD0000B0000020AC2D0020DC
:102380002DE9F84300BF00BF6A4600211A480068E3
:10239000FFF704FBFFF788FA18480068401C17494C
:1023A00008600846006800F00707154800EBC708FA
:1023B000D8F800401AE0E568104960690968884269
:1023C00013D1204600F01EF894F82400022804D10E
:1023D00001212046FFF79EFF02E0022084F825003D
:1023E000666816B12046A168B0472C46002CE2D1A1
:1023F000FFF77AFAC8E70000B8000020B00000201C
:10240000AC2D002030B5456905F007040D4D05EBF6
:10241000C4031D68854205D1C168196039B1002522
:102420000D6104E00169C268CA6002B11161012551
:1024300080F825500025C56005619D886D1E9D8032
:1024400030BD0000AC2D0020154909684FF4FA6238
:10245000B1FBF2F0B0F1807F01D301211CE020F04C
:102460007F41491E4FF0E022516100BF5117002902
:1024700005DA0F2109010B4A0B23D15404E00F2187
:102480000901094A5317D15400BF00214FF0E0223F
:10249000916107211161002109B100BFFEE770477A
:1024A0004800002018ED00E000E400E02DE9F04FC6
:1024B00004460D4616461F46A07A224911F80090A0
:1024C00004F10B0010F8090011F800A00AEBC90094
:1024D00000F0FF0B1C4850F82B800020C8F830009B
:1024E000C8F8245098F83400F143C9B2084088F87D
:1024F000340088F8357098F8340010F0080F0FD1C8
:1025000098F83A00114909780843104908701048B2
:1025100010F8090098F8391008430D4901F809002E
:102520002146404600F016F8D8F8200030B1404669
:10253000D8F8201000F026F8C8F81C405846BDE82E
:10254000F08F000030400008BC1F00207D000020FC
:102550007E00002010B590F8382001F10B039C5C40
:1025600090F83930DB43DBB21C4001F10B039C5483
:102570009B5C33B98B7A90F83A40E443E4B2234051
:102580008B7210BDF0B510F8384F85784678383822
:102590000A461146136819E003F10B073F5D6FEA25
:1025A000060C0CF0FF0C07EA0C0703F10B0C0CF8FF
:1025B000047067463F5D3FB99F7A6FEA050C0CF0E7
:1025C000FF0C07EA0C079F72121D1368002BE3D162
:1025D000F0BD000010B51D4A1268D0611B4A126898
:1025E00092F8383000F10B02D35C184A126892F866
:1025F00039201343154A126892F8384000F10B0253
:102600001355827A114B1B6893F83A301A43827241
:102610000E4A126892F838100D4A525C0B4B1B6838
:1026200093F83930DB43DBB21A40094B5A541A464F
:10263000525C52B9054A126892F83A20D243D2B29B
:10264000044B1B781A40034B1A7010BD8C000020FD
:102650007E0000207D00002000228272002105E023
:10266000002300F10B0253544A1CD1B20829F7D3BE
:10267000704700002DE9F0415021114800F032F977
:1026800000240DE0601C85B20D4800EB041600EB41
:1026900005170020307077600AA0F060601C84B2DB
:1026A000042CEFD3064800EB041600203070706055
:1026B00004A0F060024804490860BDE8F081000011
:1026C000EC1D00203F0000006800002070B54FF4B2
:1026D0000A71134800F006F9002311E0581C86B275
:1026E00003EB43000E4901EBC00406EB460001EB8F
:1026F000C0050020207065600AA06061581C83B28C
:10270000162BEBD303EB4300054901EBC00400207B
:102710002070606003A0606108460349086070BDD6
:10272000C41B00203F0000006400002000200A4974
:1027300008600A4908700A4908700A4908700A497D
:1027400008700A4908600A4908600A4908600A498D
:1027500008600A4908707047A8000020790000202E
:102760007A00002087000020860000206000002002
:1027700088000020740000207000002078000020F5
:1027800000210A4A1170002004E00021084A115477
:10279000411CC8B20828F8D30021064A1170064A25
:1027A0001170064A1160064A116070477D000020D2
:1027B0007E0000207B0000207C0000209400002090
:1027C0008C00002070B540F69801194800F08AF896
:1027D0004FF48071174800F085F8002313E0581C6F
:1027E000C4B203EB430000EBC300114901EBC00589
:1027F00004EB440000EBC40001EBC0066E610EA0C8
:102800002865581CC3B2182BE9D303EB430000EB37
:10281000C300074901EBC0050020686106A02865D8
:1028200000200649086002480549086070BD0000A4
:10283000BC200020BC1F00203F00000098000020AA
:102840009000002000B587B00323002220210B4810
:10285000CDE90323CDE901014FF6FF7300933F2338
:1028600000F17C0200210648FFF7E8F906AA05A15D
:102870003F20FFF74FFA07B000BD00003C1F0020CB
:10288000B92B000875432F4F532D49492049646CDB
:102890006500000000B587B00323002240210B48EB
:1028A000CDE90323CDE901014FF6FE7300933E23EA
:1028B00000F1FC0200210648FFF7C0F906AA05A1B5
:1028C0003E20FFF727FA07B000BD00003C1E0020A5
:1028D000E12B000875432F4F532D49492053746154
:1028E0007400000004E0002200F8012B4A1E91B29F
:1028F0000029F8D17047000070B578211148FFF722
:10290000F1FF00250EE005EB45000E4901EBC00488
:10291000681C00EB400001EBC00060600AA0606131
:10292000681C85B2042DEED305EB4500054901EB8B
:10293000C0040020606004A060610846034908608C
:1029400070BD0000542900203F000000A0000020BE
:102950002DE9F04160211048FFF7C4FF00240DE08D
:10296000601C85B204EB44000B4901EBC00705EB8A
:10297000450001EBC0063E60601C84B2032CEFD31F
:1029800004EB4400044901EBC0070020386008460E
:1029900002490860BDE8F081CC290020A400002095
:1029A00010B50024FDF7CEFB044613480078F8B9B3
:1029B00012480078E0B900F02DF811481149097863
:1029C00050F82100104908600E4800780F49097836
:1029D00088420DD00C480068C06B401C0A49096849
:1029E000C8630B480068401C09490860FDF7C1FB3B
:1029F0002046FDF7ABFB10BD790000207A000020D7
:102A0000BC1F00207C000020940000207B000020E0
:102A1000600000200649074A1278885C0649095C74
:102A2000034A515C01EBC001044A11707047000079
:102A3000304000087D0000207E0000207C00002047
:102A40002DE9FC5F04460D4616461F46DDE90D9A4A
:102A5000DDF8308000200190FDF774FB01904F48B5
:102A6000D0F800B0BBF1000F7ED04C49DBF8140069
:102A700008600198FDF76AFBCBF800508BF83640F0
:102A800000208BF834008BF83500CBF83000CBF801
:102A90000490CBF80C80CBF80860ABF810A0ABF832
:102AA00012708BF83B00E0108BF8380004F0070040
:102AB0008BF837009BF83810012088408BF83A00DB
:102AC0009BF83710012088408BF839000020CBF8A4
:102AD0001C00CBF82000CBF82800CBF82400CBF862
:102AE0003C00CBF84400CBF84000CBF84800CBF8D2
:102AF0004C002BA0CBF850000020009009E00022F1
:102B00000BF15400009940F821200098401CC0B2FD
:102B1000009000980028F2D05846FFF735F8584644
:102B2000FFF7EEF8FDF70EFB01901E4840F824B0C9
:102B30001D480068CBF814000020CBF818001A4894
:102B4000006818B118480068C0F818B01648C0F8F6
:102B500000B09BF83A0015490978084313490870FA
:102B60009BF83800124900E012E0085C9BF839102D
:102B700008439BF838100E4A50540E480078401C09
:102B80000C4908700198FDF7E1FA0020BDE8FC9FB0
:102B90000198FDF7DBFA4220F8E7000090000020E2
:102BA0003F000000BC1F0020980000207D00002096
:102BB0007E0000208700002070B5002400BF00BF09
:102BC000FDF7C0FA044605480068401C0349086048
:102BD0002046FDF7BBFAFFF799F8F1E788000020DF
:102BE00070B5002400BF03E04FF4C870FFF7DCF9B4
:102BF000194800780028F7D0184800686421B0FB15
:102C0000F1F0164908600846006828B90020144908
:102C10000870FF20FFF762F900BFFDF793FA044642
:102C2000104800681049086000200E4908602046DE
:102C3000FDF78CFA0C48006808490968B0FBF1F010
:102C4000C0F1640006490870FFF7A6F800F00EF81E
:102C5000C820FFF7A9F9E0E7780000207000002005
:102C60006C00002088000020740000207CB5002645
:102C700014E069463046FFF793F8054665B9094800
:102C800050F8264044B1012C06D0D4E9020100EBF3
:102C90008100A0640198E064701CC6B23F2EE8D9A0
:102CA0007CBD0000BC1F002012F0010F08D012F004
:102CB000020F05D002E0491E002308C00029FAD106
:102CC000704700002DE9F04704460D461646314690
:102CD000E868FDF7DBFAE860D5E90101FDF7DDFA08
:102CE00080466868A8606E60E168E868FDF776FB7A
:102CF00002D2E068E86006E02169E868FDF764FB5D
:102D000001D22069E86031462068FDF7D6FA2861D3
:102D1000E9686068FDF7D1FA68614146A068FDF78F
:102D2000CCFAA861D5E90401FDF7B0FA8146A9699A
:102D3000FDF7ACFA074600213846FDF745FB02D205
:102D40000020E8610BE007493846FDF747FB02D257
:102D5000C820E86103E03846FDF71DFBE861BDE8E7
:102D6000F08700000000484310B50446154AD16DB5
:102D7000154A1068FDF7A1FA14490860114A116E4E
:102D8000114A5068FDF799FA104948600D4A516E92
:102D90000D4A9068FDF791FA0C4988604868002157
:102DA000FDF712FB04D100200849C860086108E063
:102DB000064841680648FDF7B3FA0449C860002098
:102DC000086110BD182E0020803F0008B01A0020B6
:102DD0000000484310B5002404E02046FFF7C4FF7C
:102DE000601CC4B2012CF8DB10BD00000149086270
:102DF0007047000000000E4229B1064AD269024322
:102E0000044BDA6104E0034AD2698243014BDA6180
:102E1000704700000010024029B1064A926902433F
:102E2000044B9A6104E0034A92698243014B9A6120
:102E30007047000000100240F0B50021002200237E
:102E400000240025002600278C46DFF864E1DEF828
:102E500004E00EF00C0121B1042907D0082959D152
:102E600009E0DFF850E1C0F800E058E0DFF848E1A1
:102E7000C0F800E053E0DFF838E1DEF804E00EF4DB
:102E80007012DFF82CE1DEF804E00EF48033920CCF
:102E90000D2A01D0921C00E0062233B9DFF81CE1B4
:102EA00002FB0EFEC0F800E033E0DFF804E1DEF8DC
:102EB0002CE00EF48035DFF8F8E0DEF82CE00EF0C0
:102EC0000F0E0EF1010645B9DFF8ECE0BEFBF6FE91
:102ED0000EFB02FEC0F800E01BE0DFF8D4E0DEF8F5
:102EE0002CE0CEF3031E0EF10107DFF8C4E0DEF89C
:102EF0002CE0CEF3032E0EF1020CDFF8BCE0BEFB9B
:102F0000F7FE0EFB0CFEBEFBF6FE0EFB02FEC0F84B
:102F100000E004E0DFF89CE0C0F800E000BF00BF84
:102F2000DFF88CE0DEF804E00EF0F0010909DFF8CC
:102F300090E01EF80140D0F800E02EFA04FEC0F840
:102F400004E0DFF86CE0DEF804E00EF4E061090A6A
:102F5000DFF86CE01EF80140D0F804E02EFA04FE21
:102F6000C0F808E0DFF848E0DEF804E00EF4605155
:102F7000C90ADFF84CE01EF80140D0F804E02EFA50
:102F800004FEC0F80CE0DFF828E0DEF804E00EF400
:102F90004041890BDFF828E00EF1100E1EF80140C9
:102FA000D0F80CE0BEFBF4FEC0F810E0F0BD00006D
:102FB0000010024000127A0040787D0100093D00B7
:102FC0003100002070B500F0D3FF00244FF4807171
:102FD0001748FDF7EEFE00F0CBFF4FF400711448E8
:102FE000FDF7E9FE00251DE000F0C2FF4FF48071FF
:102FF0000F48FDF7E0FE00F0BBFF6006040E4FF443
:1030000000710B48FDF7CCFE08B1601CC4B200F0A3
:10301000AFFF00F0ADFF4FF480710548FDF7C9FE2A
:10302000681CC5B2082DDFDB00F0A2FF204670BD92
:10303000000C014070B504462046FDF735FFA03076
:10304000C6B22146304600F023FF0546284670BD33
:103050007047000010B504462CB14FF400710D48C4
:10306000FDF7A7FE04E04FF400710A48FDF7A3FE48
:1030700000F07EFF4FF480710648FDF79CFE00F0E3
:1030800077FF4FF480710348FDF793FE00F070FF67
:1030900010BD0000000C014070B50546002421E081
:1030A00015F0800F05D04FF400712348FDF783FE23
:1030B00004E04FF400712048FDF77BFE6806050E22
:1030C00000F056FF4FF480711B48FDF774FE00F0CE
:1030D0004FFF4FF480711848FDF76BFE00F048FF7A
:1030E000601CC4B2082CDBDB00F042FF4FF400711F
:1030F0001148FDF760FE00F03BFF4FF480710E4871
:10310000FDF759FE00F034FF4FF400710A48FDF757
:1031100047FE18B100200949087002E00120074964
:10312000087000F025FF4FF480710348FDF741FE61
:1031300000F01EFF70BD0000000C014030000020B8
:1031400070B50446002507E0605D00B906E0605DEB
:1031500000F026FD681CC5B2FF2DF5DB00BF70BD79
:1031600010B500F001F810BD002000213A4A1268A5
:1031700042F48032384B1A6000BF374A126802F4BA
:103180000031401C11B9B0F5A06FF6D1324A126877
:1031900012F4003F01D0012100E0002101295AD1A1
:1031A0002E4A126842F010022C4B1A601A4612681E
:1031B00022F003021A601A46126842F002021A60F4
:1031C000254A5268244B5A601A4652685A601A4679
:1031D000526842F480625A601A46D26A204B1A4002
:1031E0001D4BDA621A46D26A1E4B1A431A4BDA6238
:1031F0001A46126842F080621A6000BF164A1268CE
:1032000012F0006FFAD0144A526822F47C12124B6A
:103210005A601A46526842F4E8125A601A46126816
:1032200042F080721A6000BF0B4A126812F0007FF1
:10323000FAD0094A526822F00302074B5A601A4634
:10324000526842F002025A6000BF034A526802F01C
:103250000C02082AF9D170470010024000200240F9
:1032600000F0FEFF4406010000BF012080F3138838
:1032700000BF00BF0748006800F4E060064908434B
:10328000001D4FF0E021C1F80C0DBFF3408F00BFCF
:1032900000BFFEE70CED00E00000FA0510B54FF4AA
:1032A00080711148FDF785FD00F062FE4FF400715A
:1032B0000D48FDF780FD00F05BFE4FF480710A4879
:1032C000FDF779FD00F054FE4FF400710648FDF75C
:1032D00070FD00F04DFE4FF480710348FDF769FD6D
:1032E00000F046FE10BD0000000C014010B500F0DB
:1032F0003FFE00F03DFE4FF400710A48FDF759FD16
:1033000000F036FE4FF480710648FDF754FD00F0E2
:103310002FFE4FF400710348FDF74DFD00F028FE2D
:1033200010BD0000000C014010B5FCF70BFF044677
:1033300006480078401C054908702046FCF706FF47
:10334000FEF7B4FEFEF768FA10BD00007900002019
:1033500010B51648006840F001001449086008469E
:1033600040681349084011494860084600681149FF
:1033700008400E4908600846006820F48020086074
:103380000846406820F4FE0048600846006820F0C7
:10339000A05008604FF47F0088600020C862FFF7EB
:1033A000DFFE4FF000600449086010BD00100240CD
:1033B0000000FFF0FFFFF6FE08ED00E010B5012170
:1033C000044800F018F818B10121024800F004F890
:1033D00010BD000000040040CA430282704721B1C2
:1033E000028842F00102028004E002884FF6FE7378
:1033F0001A400280704730B50246002000230024A6
:10340000158A05EA0103958905EA010413B10CB197
:10341000012000E0002030BD10B51AB183890B43B4
:10342000838104E08389CC43A4B22340838110BD0F
:1034300081847047002202881D4B98420ED01D4B9C
:1034400098420BD0B0F1804F08D01B4B984205D06A
:103450001A4B984202D01A4B984204D14FF68F7300
:103460001A404B881A43174B984207D0164B984284
:1034700004D04FF6FF431A40CB881A4302808B8852
:1034800083850B8803850A4B98420BD0094B9842E1
:1034900008D00E4B984205D00D4B984202D00D4BF0
:1034A000984201D10B7A0386012383827047000082
:1034B000002C01400034014000040040000800409E
:1034C000000C00400010004000140040004001408B
:1034D000004401400048014038B500BFC820FEF755
:1034E00063FDFDF7E7FD0120FEF72EFA06490860AF
:1034F00000BF6A46002105480068FEF74FFA042025
:10350000FEF752FDF5E70000180000202000002023
:1035100010B500BF00BF6420FEF746FDFBE710B505
:1035200000BF00BF6420FEF73FFDFBE710B500BF02
:10353000C820FEF739FD00BFC820FEF735FDFBE7C8
:1035400010B500BF3223002211461046FEF76CFD75
:10355000F8E710B500BF6423012200210846FEF7FA
:1035600063FD6423012200210846FEF75DFDF2E7BA
:10357000F8B500BFC820FEF717FD00BF6A4600215E
:1035800027480068FEF70AFA002434E02548D0F8FE
:10359000E400254901EB44110860244A52F8241044
:1035A000214A02EB44121068FCF777FE05461E48DC
:1035B00000EB44112A461E48FFF784FB1948FC30F3
:1035C00050F8240078B1012802D002280AD108E07E
:1035D000154800EB4410C06981B2164840F8241029
:1035E00006E005E000BF0021124840F8241000BFAB
:1035F00000BF601CC4B2082CC8DB0B480069094935
:10360000886709484069C86707488069C1F8800031
:103610000548C069C1F884001420FEF7C5FCADE779
:1036200024000020182E0020C41A0020901A002028
:10363000B01A00208C2F002010B500BF00201449C4
:10364000087014490880FDF71DFBFDF71CFBFDF712
:103650001BFBFDF7A1FD1420FEF7A6FCFDF758FEAD
:103660004FF4C870FEF7A0FC00BF0420FEF79CFCDE
:10367000FDF7C2FA0648007800F00F005030064906
:10368000C1F8C001FDF708FFFDF7D2FBEDE7000030
:1036900028000020C2000020182E002070B500BFB6
:1036A00000240FE002211D48FDF783FB6420FEF794
:1036B0007BFC02211948FDF77EFB6420FEF774FCB9
:1036C000601CC4B20A2CEDDB02211448FDF773FB29
:1036D00000BF00BF02211148FDF76DFB4FF4FA70E7
:1036E000FEF762FC02210D48FDF763FB4FF4FA7010
:1036F000FEF75AFC0A480078002804DD08480078E4
:10370000401E07490870074800780028E1DD054899
:103710000078401E03490870DBE700000008014004
:10372000100000201100002070B500BF4FF47A7027
:10373000FEF73AFC00BF1420FEF736FC601C84B292
:10374000142C04DB002407480068FEF7A3F9681C6A
:1037500085B2322DEFDB002503480068FEF79AF9A9
:10376000E9E70000240000202000002030B591B0DF
:1037700000BF29480990001D0190001D0A90001DFE
:103780000290001D0B90001D0390001D0C90001D69
:103790000490001D0D90001D0590001D0E90001D51
:1037A0000690001D0F90001D0790001D1090001D39
:1037B00008904FF4FA60FEF7F7FBFCF7D9FE012002
:1037C000FCF740FF00BF002420E02046FDF7D8F9B9
:1037D0000420FEF7E9FB114800EB84030E48103883
:1037E0000093D0F8E83001A850F82400026809A836
:1037F00050F8240001680520FDF756F9074850F8F5
:103800002410074840F82410601CC4B2082CDCDBEC
:103810001420FEF7C9FBD6E7282E0020901A0020BE
:103820006C2F00207CB500BFC825C820FEF7BCFB6C
:1038300000BF002410E01DF80400002806DD1DF87C
:103840000400401EC0B20DF8040003E00021204631
:1038500000F000FA601CC4B2082CECDB002D02DD85
:10386000681EC5B215E0C825002410E00B4850F8CA
:103870002400C0B20DF804000848783850F824003D
:1038800018B10121204600F0E5F9601CC4B2082CF3
:10389000ECDB0220FEF788FBCBE700008C2F00203A
:1038A00010B500F001F810BD38B5FCF7A1FC0546D5
:1038B0002D480078401C2C4908702846FCF79CFCD9
:1038C00040F22551294800F08BF8B0B1274800F0AC
:1038D00041F9C4B22046FDF795FD244800F03AF9BD
:1038E000C4B223464FF4877221492248FCF7E8FE10
:1038F00040F225511D4800F058F840F227711B484E
:1039000000F06EF8E8B11C48008848B900201B4957
:103910000870002240F22771144800F08BF810E084
:103920004FF480711648FDF744FA6B464FF48772E6
:1039300014491148FDF75EFA9DF800100B4800F09D
:103940000EF940F22661094800F04AF848B14FF4F8
:1039500080710B48FDF72FFA40F22661034800F012
:1039600024F8FDF759FF38BD7900002000380140E8
:10397000D0030020020000200800002000000020EA
:1039800000080140E204002010B5012240F2277136
:10399000044800F04FF8012240F22661014800F08F
:1039A00049F810BD00380140704710B500220023CF
:1039B000A1F510646A3C00D100BF0A1201249440B2
:1039C000A3B2DC43048010BD21B1828942F40052CD
:1039D000828104E082894DF6FF731A40828170472C
:1039E00070B502460023002400250020A1F51066D2
:1039F0006A3E00D100BFC1F3421501F01F04012649
:103A000006FA04F4012D02D19689344006E0022D15
:103A100002D1168A344001E0968A34400B12012606
:103A200006FA03F31688334014B10BB1012000E00D
:103A3000002070BDF0B50024002500260023A1F56C
:103A400010676A3F00D100BF0346C1F3421401F082
:103A50001F05012707FA05F6012C01D10C3304E0FC
:103A6000022C01D1103300E014331AB11F68374320
:103A70001F6002E01F68B7431F60F0BD2DE9F047EB
:103A800086B004460D460026002700BFB146B24668
:103A9000A88900B100BFA246268A4CF6FF700640F6
:103AA000E88806432682A6894EF6F3100640A888C9
:103AB00029890843698908430643A681A68A4FF6E7
:103AC000FF400640A8890643A68201A8FFF7B4F983
:103AD00054461F48824501D1049F00E0039FA089FE
:103AE00010F4004F08D007EBC70000EB071029685F
:103AF0004900B0FBF1F807E007EBC70000EB071047
:103B000029688900B0FBF1F86420B8FBF0F00601E9
:103B10003009642101FB1089A08910F4004F09D0FD
:103B2000322101EBC9006421B0FBF1F000F0070085
:103B3000064308E0322101EB09106421B0FBF1F0EB
:103B400000F00F000643268106B0BDE8F0870000B4
:103B50000038014001468888C0F308007047C1F36F
:103B6000080282807047000010B5FCF7EBFA0446AB
:103B70000020084908704FF487710748FDF77CF86A
:103B80004FF487710548FDF777F82046FCF7DEFA19
:103B900010BD0000000000200800002002000020EE
:103BA000F8B5044600252548008803280DDD0A26BF
:103BB00003E00220FEF7F8F9761E204840881F49EE
:103BC0008988884201D1002EF3D106B90125FCF77E
:103BD000B9FA074623464FF4877219491748FCF78C
:103BE0006FFD3846FCF7B2FA16480078F8B9FCF7D2
:103BF000A9FA07466B464FF4877211490F48FDF743
:103C0000F9F888B101200F49087001020E48FDF74C
:103C1000D0F89DF800100D48FFF7A1FF012240F2F7
:103C200027710A48FFF706FF3846FCF78FFA0DB9EF
:103C3000012000E0002080B2F8BD00000800002054
:103C4000E20400200000002000080140003801408C
:103C500000BFFEE770B504460D46082C49D2DFE8E8
:103C600004F0040F1A25303B464725B101212248B4
:103C7000FDF79FF803E001211F48FDF79CF838E0AD
:103C800025B102211C48FDF794F803E002211A48EF
:103C9000FDF791F82DE025B104211748FDF789F8CB
:103CA00003E004211448FDF786F822E025B108213D
:103CB0001148FDF77EF803E008210F48FDF77BF877
:103CC00017E025B110210C48FDF773F803E010212F
:103CD0000948FDF770F80CE025B120210648FDF7F2
:103CE00068F803E020210448FDF765F801E000E0F2
:103CF00000BF00BF70BD00000014014010B50246B7
:103D00000020002304E0D45C0444E0B25C1CA3B2B5
:103D10008B42F8DB10BD1170521C08E08B1E99B26B
:103D200043781370521C03781370521C801C0229B4
:103D3000F4DA704703121370521C1070521C0B12ED
:103D40001370521C1170704770B504460D4616462C
:103D50006878012806D0032810D0052808D010283C
:103D600021D112E032462946204600F023F81BE01C
:103D700032462946204600F02BF815E00B4B324620
:103D800029462046FDF7DAFA0EE0084B324629466E
:103D90002046FDF7C7FBFDF72FFAFFF71BF80A20B7
:103DA0000349088000E000BF00BF70BD283000203C
:103DB000C200002070B5034614468D784E7805EB9E
:103DC0000625A8B20D79CE7805EB0625AAB270BDFE
:103DD00070B5034614468D784E7805EB0625A8B2DB
:103DE0000D79CE7805EB0625AAB270BD02460020FB
:103DF000704730B500230DE0022404FB030464780F
:103E000001F8134010F81340022505FB03156C70F0
:103E10005C1CE3B29342EFDB30BD70B504460D4647
:103E200029462046FCF7CAFF064630126055611944
:103E30004E70A81C85B22946204600F001F870BDDE
:103E400070B504460E46002504E0605DFFF7A8FE4D
:103E5000681C85B2B542F8DB70BD02E008C8121FCD
:103E600008C1002AFAD170477047002001E001C163
:103E7000121F002AFBD1704707E0002101E04A1C15
:103E800091B20829FBDB421E90B20028F5DC704796
:103E90002DE9F04106460D460127FFF7FFF93046B0
:103EA000FFF7FAF81948007800B900272C46E917FF
:103EB00005EB1161C1F30720FFF7EEF81348007816
:103EC00000B900272C46E91705EB11610912A5EB93
:103ED0000121C8B2FFF7E0F80C48007800B90027CC
:103EE000FFF7DCF9701CC0B2FFF7D6F8074800787E
:103EF00000B90027FFF766F880460020FFF7AAF810
:103F0000FFF7F4F94046BDE8F081000030000020E2
:103F100000B587B09DF818000690FDF7FDF8FCF796
:103F200063F9FDF755FC0323002242210B48CDE93C
:103F3000032300F58272CDE9003002910021084888
:103F4000FDF77CFE069006AA06A10320FDF7E2FE1F
:103F5000FDF7D0FD002007B000BD0000C802002022
:103F60000D0A00085374617274205461736B000071
:103F7000002001E0411C88B2B0F55C7FFADB70479D
:103F80000000164300000040000040410000000017
:103F90000000000000000000000000000000000021
:103FA0000000000000000000000000000000000011
:103FB0000000000000000000000000000100000000
:103FC0007856341201001700010018002802010081
:103FD0000100100014000200050001003F00010074
:103FE0000100050001001800780001000400010034
:103FF0000400180008000100040001000100010095
:104000002000010019000100010040000100010032
:10401000010040005800D0070100230101001000FA
:10402000010008000A0028008002080040008212F7
:104030000000010002000100030001000200010075
:104040000400010002000100030001000200010061
:104050000500010002000100030001000200010050
:104060000400010002000100030001000200010041
:10407000060001000200010003000100020001002F
:104080000400010002000100030001000200010021
:104090000500010002000100030001000200010010
:1040A0000400010002000100030001000200010001
:1040B00007000100020001000300010002000100EE
:1040C00004000100020001000300010002000100E1
:1040D00005000100020001000300010002000100D0
:1040E00004000100020001000300010002000100C1
:1040F00006000100020001000300010002000100AF
:1041000004000100020001000300010002000100A0
:10411000050001000200010003000100020001008F
:104120000400010002000100030001000200010080
:104130005041000800000020C80200007004000880
:1041400090420008C8020020683500006A3E00085E
:1041500001352D0102030404400906070809020481
:104160000608ACA24A041F291B016B2808C1814024
:1041700001C0804104690C2908E918A91C091A30FA
:10418000091638093660092E70092F6000FF00C03B
:10419000C101C30302C2C60607C705C5C404CC0CCF
:1041A0000DCD0FCFCE0E0ACACB0BC90908C8D8183F
:1041B00019D91BDBDA1A1EDEDF1FDD1D1CDC14D44F
:1041C000D515D71716D6D21213D311D1D010F0307F
:1041D00031F133F3F23236F6F737F53534F43CFC8F
:1041E000FD3DFF3F3EFEFA3A3BFB39F9F83828E83F
:1041F000E929EB2B2AEAEE2E2FEF2DEDEC2CE4240F
:1042000025E527E7E62622E2E323E12120E0A0607E
:1042100061A163A3A26266A6A767A56564A46CAC4E
:10422000AD6DAF6F6EAEAA6A6BAB69A9A86878B8BE
:10423000B979BB7B7ABABE7E7FBF7DBDBC7CB474CE
:1042400075B577B7B67672B2B373B17170B050907E
:1042500091519353529296565797559594549C5C0E
:104260005D9D5F9F9E5E5A9A9B5B995958988848BE
:1042700049894B8B8A4A4E8E8F4F8D4D4C8C44848E
:10428000854587474686824243834181802240009C
:04000005080000ED02
:00000001FF
