:020000040800F2
:100000002838002021010008CD180008B912000886
:100010009B150008A90C0008A93D0008000000007D
:100020000000000000000000000000002D33000868
:10003000870E000800000000870100088D340008CA
:100040003B0100083B0100083B0100083B010008A0
:100050003B0100083B0100083B0100083B01000890
:100060003B0100083B0100083B0100083B01000880
:100070003B0100083B0100083B0100083B01000870
:100080003B0100083B0100083B0100083B01000860
:100090003B0100083B0100083B0100083B01000850
:1000A0003B0100083B0100083B0100083B01000840
:1000B0003B01000821350008000000003B0100085A
:1000C0003B01000800000000000000003B010008A8
:1000D00000000000F9390008013B000800000000A2
:1000E0003B0100083B0100083B010008DFF80CD091
:1000F00000F0AEFA00480047CD3F00082838002045
:10010000EFF30980704780F309887047EFF30880A8
:10011000704780F30888704740BA7047C0BA70478C
:100120000648804706480047FEE7FEE7FEE7FEE791
:10013000FEE7FEE7FEE7FEE7FEE7FEE7B534000870
:10014000ED000008EFF3108072B6704780F310885E
:1001500070471D484FF0FF010170002080F30988AF
:100160001A48012101701A484FF08051016062B6AF
:10017000FEE717484FF080510160704714484FF078
:1001800080510160704772B6EFF3098028B12038C2
:1001900080E8F00F0F490968086000B50E488047F5
:1001A0005DF804EB0D480E490A78027009480D49C4
:1001B0000A680260106890E8F00F203080F3098828
:1001C0004EF0040E62B6704722ED00E0820000207F
:1001D00004ED00E088000020ED22000877000020F8
:1001E000780000209000002072B6704762B6704719
:1001F000EFF3108072B6704780F310887047B0FA42
:1002000080F0704790FAA0F0704730BF704720BF71
:100210007047F0B4144620F0004621F0004100F091
:1002200000428E4205D230460E4601460CB182F0A5
:10023000004219B946EA0200F0BC7047C6F3C75342
:10024000C1F3C7501D1AC6F3160040F40000202D5C
:1002500014DAC1F3160141F40001002C21FA05F46F
:1002600002D0A0EB040000E02044C5F1200401FA14
:1002700004F108D0494206D0401E04E014B14FF00A
:10028000FF31F9E70121F0BC00F059B990EA010211
:1002900001D5012200E00022BBE790EA010201D56E
:1002A000002200E00122B4E703460846594001D588
:1002B000002200E001221946ABE780EA010210B5F6
:1002C00002F00042400001D04B0001D1002010BDDF
:1002D0004FEA106101EB1361C0F35600C3F35603FC
:1002E00040F4000043F40003A0FB03307F394FEAE1
:1002F00000401C0400D0401C50EA134001D44000D0
:10030000491EC3B20C0604EBD010401C4008802BE1
:1003100001D120F00100002900DA0020104310BDB7
:10032000F0B480EA010230F0004302F0004221F014
:10033000004000D010B9F0BC00207047C0F3C75592
:10034000C3F31601C3F3C756731BC0F3160040F482
:1003500000047E3341F400014FF080750020A1427B
:1003600001D3091B28436D084FEA4101F7D151B170
:10037000A14202D14FF0004105E002D24FF001014D
:1003800001E06FF00101F0BC00F0D9B82DE9FF4D9C
:10039000144681EA030200208AB002F00042CDE94F
:1003A000080223F00046034602460A9821F0004561
:1003B00085EA03015040084306D0002386EA030182
:1003C00084EA0300084304D1002001460EB0BDE8D2
:1003D000F08DC5F30A51C6F30A5000270844A0F275
:1003E000F330C5F31302CDE9030742F48015C6F3D9
:1003F000130242F48016BA46B846BB46069725E07B
:10040000E00717D0049A0A988018024604900A98C8
:1004100045EB0A0A121A7AEB050301D2012000E02B
:100420000020C11710EB0800069A7941801841EBB3
:100430000B0B069018EB08000A9A7F4140EAD5782A
:1004400090186D4176080A904FEA3404002386EA3A
:10045000030184EA03000843D2D1039BDDE90801CC
:10046000CDE90001029353465946049A069800F0DC
:10047000A6F8ABE796230022114600F060B80EB54F
:10048000002140F233430091CDE901130B460A46A7
:1004900000F095F803B000BD00F0004220F00040ED
:1004A000C10DC0F3160040F400007F2901DA0020DE
:1004B0007047962903DCC1F19601C84001E09639E6
:1004C0008840002AF4D040427047F0B4002305462B
:1004D00001F0004621F0004484EA0301584008433B
:1004E0000ED0C4F3130040F48010230DC10041EA84
:1004F0005570E9003246F0BCA3F5607300F01FB8F8
:10050000F0BC7047002801DBC0F10040002901DB8E
:10051000C1F1004181427047002801DBC0F1004079
:10052000002901DBC1F1004188427047002905DA4A
:10053000401CB1F1004F01D120F00100704730B4F0
:1005400050EA01040BD130BC0020704701F00105D6
:1005500045EA510141EAC07140085B1C01E04FF0DF
:100560008074A042F2D24FF4000404E0400040EA5C
:10057000D17049005B1EA042F8D300EBC350A0F538
:10058000000030BC1044D1E7F0B504460D46002011
:1005900003F000414140404017461E4608430BD03F
:1005A000641C4FF0004386EA030145F1000557EA59
:1005B000010001D124F0010420462946F0BD2DE9B7
:1005C000F00D88461D461943074600231043594045
:1005D0005840099E14464FF0FF3A084311D1BDE838
:1005E000F00D01467047680804F0010242EA340445
:1005F00040EAC7755FEA58084FEA370706F1010677
:1006000001E0DFF848B0BAEB07027BEB0803EAD35E
:100610004FF4801A07E0FF1948EB080847EAD5773E
:1006200024196D41761E381E78EB0A01F3D3330589
:10063000A3F58013381C48EB0301DDE9072380187C
:1006400059412B462246BDE8F00D9DE7FFFF1F00F4
:10065000064C074D06E0E06840F0010394E807000F
:1006600098471034AC42F6D3FFF744FDDC41000854
:10067000FC41000870B58C1810F8015B15F00703F9
:1006800001D110F8013B2A1106D110F8012B03E02B
:1006900010F8016B01F8016B5B1EF9D12B0706D432
:1006A000002301E001F8013B521EFBD50AE010F8DF
:1006B000013BCB1A921C03E013F8015B01F8015BCC
:1006C000521EF9D5A142D7D3002070BD2DE9F05FAD
:1006D00004460D464FF0000A4FF6FF7BA01CC4B243
:1006E000D046002739E08021214800F06AFD4FF014
:1006F000000900BF04211E4800F063FD04211C48CE
:1007000000F061FD1A4800F058FD00F0400609F1C4
:1007100001001FFA80F91EB942F210708145E9DB31
:100720008021134800F04FFD022003F042FC42F20A
:10073000107081450CDA4FF4504000F03DF8064649
:10074000564500DDB2465E4500DAB346B04402E0ED
:100750000020BDE8F09F781C87B2A742C3DBA8EB5E
:100760000A08A8EB0B08C5F800800120F1E700009B
:100770000008014010B540F2FC6404F5604084B20A
:10078000642003F016FC204600F06CF8642003F0AF
:1007900010FC204600F066F8642003F00AFC601CA0
:1007A00080B200F05FF8642003F003FC601C80B2AC
:1007B00000F058F810BD00002DE9F0410446002576
:1007C0002021204800F0FDFC022003F0F2FBA846A7
:1007D00027E004F4004727B910211A4800F0F1FC83
:1007E00003E01021174800F0EEFC6004040C042123
:1007F000144800F0E8FC134800F0DFFCC0F3C0062A
:100800000421104800F0DDFC6804050C16B145F029
:10081000010502E04FF6FE70054008F1010000F00E
:10082000FF08B8F1100FD4DB1021064800F0CBFC14
:100830002021044800F0C7FC022003F0BAFB284640
:10084000BDE8F0810008014010B50446012C03D139
:10085000002000F007F803E04FF4805000F002F8A9
:1008600010BD000070B504462021154800F0A9FC19
:10087000002616E004F4004525B91021104800F0C8
:10088000A0FC03E010210E4800F09DFC04210C4860
:1008900000F099FC04210A4800F093FC6004040C69
:1008A000761C102EE6D32021054800F08CFC042194
:1008B000034800F086FC1021014800F084FC70BD64
:1008C0000008014030B504466088A588A84201D1DF
:1008D000208878B960880B546088904203D2608881
:1008E000401C608001E0002060802088401C208047
:1008F000012030BD0020FCE700B587B09DF818004E
:100900000690012001F0C6F986490860002001F038
:10091000C1F985490860002001F0BCF983490860ED
:100920000323002242218248CDE90323CDE90101BE
:10093000382300F5827200217E48009301F024FBE9
:10094000069039237A4A121F00217B4801F0C8FA29
:100950000690032300224E217848CDE90323CDE9F8
:100960000101292300F59A7200217548009301F0D6
:100970000BFB069003230022CA217248CDE9032312
:10098000CDE90101282300F5497200216E4800934A
:1009900001F0FAFA0690032300224E216B48CDE9BC
:1009A0000323CDE90101362300F59A72002168483E
:1009B000009301F0E9FA06900323002242216548E2
:1009C000CDE90323CDE90101272300F5827200213F
:1009D0006148009301F0D8FA0690032300224E21CB
:1009E0005E48CDE90323CDE901012F2300F59A727A
:1009F00000215B48009301F0C7FA06900323002210
:100A00009D215848CDE90323CDE90101302300F5AC
:100A10001C7200215448009301F0B6FA069003239B
:100A20000022A6215148CDE90323CDE9010131235C
:100A300000F5257200214E48009301F0A5FA0690BA
:100A4000032300225A214B48CDE90323CDE90101BC
:100A5000322300F5B27200214748009301F094FA66
:100A60000690032300227A214448CDE90323CDE9EF
:100A70000101332300F5F27200214148009301F097
:100A800083FA06900323002256213E48CDE9032332
:100A9000CDE90101342300F5AA7200213A48009300
:100AA00001F072FA069006AA38A1382001F0D8FAAF
:100AB00006AA38A1392001F0D3FA06AA37A12920C5
:100AC00001F0CEFA06AA37A1362001F0C9FA06AA2B
:100AD00036A1272001F0C4FA06AA36A1312001F080
:100AE000BFFA06AA35A12F2001F0BAFA06AA36A14C
:100AF000282001F0B5FA06AA35A1302001F0B0FA9D
:100B000006AA36A1322001F0ABFA06AA36A133209C
:100B100001F0A6FA06AA37A1342001F0A1FA07B025
:100B200000BD00001C000020200000202400002048
:100B3000040E0020B7360008A5360008C40A0020BD
:100B4000913600080C0F0020C53800088C090020E1
:100B5000833600088408002075360008341200200F
:100B60007D3900086C1300209D370008EC0500203B
:100B70003D360008E01500208138000848170020A5
:100B8000D536000830190020F53700085461736B22
:100B9000303036005461736B303035005461736B04
:100BA000303034005461736B303033005461736BF8
:100BB000303032005461736B303031005461736BEC
:100BC00056697250776D00005461736B5473000066
:100BD0005461736B4D6F6462757300005461736B85
:100BE00054696D65507200005461736B486561749F
:100BF000000000005461736B5374617475730000DE
:100C0000704710B5FFF778FE10BD704770470000C1
:100C100010B54FF4C06000F095FE00F047FA00F008
:100C20004DFB01F0B7FD00214FF4165000F00CFC15
:100C30000AA002F07CFB01F027F9FFF7E2FF642332
:100C400000221146104601F095FB00BF00231A4612
:100C50000121184601F08EFBF8E70000554152547F
:100C600031204F4B0D0A000070477047704700005D
:100C70000348008840F001000249A1F8340C704795
:100C8000346C0040006000400246002101491144DC
:100C900008887047006C00400022024A024411603C
:100CA00070470000006C004000BFFEE72DE9FF4FD9
:100CB00083B004460D461646109F4FF000080020F2
:100CC00001906FF07F4000904FF0000A26E002A9EB
:100CD0000520FFF7FBFC834605210298B0FBF1F0ED
:100CE0000290BBF1000F09D12448D0F8B801401C94
:100CF0002249C1F8B80107B0BDE8F08F02988044DE
:100D0000DDE90110884201D902980190009902980A
:100D1000884201D2029800900AF1010AA01C824583
:100D2000D5D30198A8EB00080098A8EB0008B8FB01
:100D3000F4F843F28130804510D9A8EB0008404612
:100D4000FFF798FB81460E494846FFF7E9FA8146CE
:100D500048460699FFF79AFA814601E04FF00009EC
:100D600029464846FFF7A9FA814631464846FFF72B
:100D70008DFA8146C7F80090BDE70000102E0020D4
:100D8000000090431CB5044618A103C9CDE9000139
:100D90001DF8040000F00100012804D120211548AD
:100DA00000F011FA03E02021124800F00AFA1DF8C1
:100DB000040000F00200022804D101210E4800F0D6
:100DC00002FA03E001210C4800F0FBF91DF80400D1
:100DD00000F00400042804D10221074800F0F3F9D0
:100DE00003E00221044800F0ECF91CBD04020100FC
:100DF0000503060700100140000C014010B51C4817
:100E000000F0DBF91B490870481C0078097888421B
:100E10001BD11848801C00781649491C0978884263
:100E200013D11448C01C00781249891C09788842E3
:100E30000BD11048001D00780E49C91C0978884262
:100E400003D10C4800780C4908700A48C01C00788F
:100E50000849091D0870881E0078491E0870881E00
:100E60000078491E0870881E0078491E087010BD61
:100E70000010014012000020280000200022028003
:100E800042808280704770471FB502206249C1F8D6
:100E9000C401002008604860012088600220C8600A
:100EA0005E4808615E4848615E4888615E48C86186
:100EB0005E4808625E4848625E4888625E48C86272
:100EC0005E4808635E4848635E4888635E48C8635E
:100ED0005E4808645E4848645E4888645E48C8644A
:100EE0004FF07E5008655D4848655D4888655D48FF
:100EF000C8655D4808665D4848665D4888665D4827
:100F0000C8665D480867002048675C4888675C4899
:100F1000C8675C48C1F880000020C1F88400012047
:100F2000C1F8E0005848C1F8E4000020C1F8E8002A
:100F30005648C1F8EC005648C1F8F0000020C1F84E
:100F4000F4005448C1F8F8000020C1F81C01C1F8B1
:100F50002001C1F82401C1F82801C1F82C01C1F811
:100F60003001002423E001212B48FC3040F82410FC
:100F70000021383040F824102046FFF780FACDE9F0
:100F8000020145A00CC80298FFF700FACDE9000164
:100F9000FFF79BFA424941F82400002140482030E5
:100FA00040F82410203040F82410601CC4B2082CF3
:100FB000D9DB00201849C1F8B401C1F8B801C1F863
:100FC000BC01F720C1F8C0010020C1F8C401C1F87C
:100FD000C801C1F8CC01002409E0002130487C3070
:100FE00040F82410203040F82410601CC4B2082CB3
:100FF000F3DB02F069F8002406E02A4901EB441013
:1010000002F005F8601CC4B2082CF6DB4FF48771BF
:101010002548FFF733FF1FBD102E0020C520803F5D
:101020000AD7233C8941803F0AD7A33C4E62803FC8
:101030008FC2F53C1283803F0AD7233DD7A3803F60
:10104000CDCC4C3D9CC4803F8FC2753D60E5803F58
:10105000295C8F3D2506813F0AD7A33D0000404013
:1010600000004843AE47813F5C8F823F0AD7833FF1
:10107000AE47E13D8FC2F53DB81E053E3D0A573EE5
:10108000AE47613E1F856B3E000014420000B44233
:10109000000020420000FA429A9999999999B93F23
:1010A000642F0020BC1A0020020000207047F0B519
:1010B00000220023002400250026002791F803C009
:1010C0000CF00F0291F803C01CF0100F03D091F840
:1010D00002C04CEA0202B1F800C01CF0FF0F31D090
:1010E000066800242BE04FF0010C0CFA04F5B1F86F
:1010F00000C00CEA0503AB4220D1A5004FF00F0C55
:101100000CFA05F7BE4302FA05FC4CEA060691F814
:1011100003C0BCF1280F06D14FF0010C0CFA04FCFF
:10112000C0F814C00AE091F803C0BCF1480F05D123
:101130004FF0010C0CFA04FCC0F810C0641C082C21
:10114000D1D30660B1F800C0BCF1FF0F34DD4668B2
:1011500000242EE004F1080C4FF0010E0EFA0CF5FD
:10116000B1F800C00CEA0503AB4221D1A5004FF055
:101170000F0C0CFA05F7BE4302FA05FC4CEA060612
:1011800091F803C0BCF1280F05D104F1080C0EFA48
:101190000CFEC0F814E091F803C0BCF1480F07D171
:1011A00004F1080C4FF0010E0EFA0CFEC0F810E02E
:1011B000641C082CCED34660F0BD0146886880B21E
:1011C00070474161704701617047000070B5024689
:1011D000FF23FF2409E012F8010B80EA030507480A
:1011E000405D80EA04030648445D0800A1F1010661
:1011F000B1B2F0D144EA032070BD0000C00000206D
:10120000C001002030B504462088002816DDA088E3
:10121000085C1870A088904203D2A088401CA0806F
:1012200001E00020A0802088401E2080A0886588E2
:10123000A84201D100202080012030BD0020FCE721
:1012400010B51C4890F8020368B11A48808800283D
:1012500004DD184881880A3000F042FA0020154960
:10126000888081F80203134890F8030370B1114895
:10127000C088002805DD0F48C18800F2071000F083
:101280002FFA00200B49C88081F80303094890F821
:10129000040370B107480089002805DD054801896D
:1012A00000F5017000F01CFA00200249088181F865
:1012B000040310BD1C31002000BFFEE708B501216A
:1012C000042001F05DFF4920ADF8000048208DF8B2
:1012D000030069465748FFF7EAFE4FF4DB70ADF8AC
:1012E000000003208DF8020010208DF803006946ED
:1012F0005048FFF7DCFE4FF40070ADF8000003200B
:101300008DF8020018208DF8030069464948FFF760
:10131000CEFE4FF48060ADF8000048208DF8030049
:1013200069464448FFF7C3FE0121082001F028FF69
:101330004020ADF8000003208DF8020014208DF845
:10134000030069463C48FFF7B2FE8020ADF800007C
:1013500003208DF8020014208DF8030069463648FA
:10136000FFF7A5FE0320ADF800008DF80200102065
:101370008DF8030069463048FFF799FE4FF440703E
:10138000ADF8000003208DF8020014208DF8030052
:1013900069462948FFF78BFE0121102001F0F0FE7D
:1013A0004FF47870ADF8000003208DF80200102093
:1013B0008DF8030069462148FFF779FE0F20ADF84C
:1013C000000048208DF8030069461C48FFF76FFEB7
:1013D0000121202001F0D4FE4FF47F40ADF8000041
:1013E00003208DF8020010208DF803006946144890
:1013F000FFF75DFE3F20ADF8000003208DF80200EE
:1014000010208DF8030069460D48FFF750FE0121BA
:10141000402001F0B5FE4FF4DE40ADF8000003209F
:101420008DF8020010208DF8030069460548FFF78B
:101430003EFE08BD00080140000C014000100140C4
:10144000001401400018014030B585B004460D4637
:101450000121880301F094FE01940020ADF80800FA
:10146000ADF80A00ADF80C50ADF810000C20ADF846
:101470000E0001A90F4802F0ADFB01210D4802F05A
:101480004FFB25208DF8000002208DF8020001207E
:101490008DF80300684600F01BFA02F011FC02F020
:1014A0001FFB012240F22551024802F06FFB05B0FC
:1014B00030BD0000003801401FB50121022001F0BD
:1014C0004FFE1920ADF804004720ADF800000020C1
:1014D000ADF80600ADF8020069460F4802F05CF86E
:1014E00000210D4802F056F8012211460A4802F088
:1014F00045F80121084802F024F81D208DF80C0061
:1015000000208DF80D008DF80E0001208DF80F00E1
:1015100003A800F0DDF91FBD0004004070B50121F3
:101520004FF0C05001F01CFE012001F013FEFFF748
:101530009FFB0820FFF7A8FB04460C20FFF7A4FB45
:10154000054600210820FFF7A7FB00210C20FFF72C
:10155000A3FB162C00D070BD192D00D0FBE702486C
:1015600000F010F8F7E7000000F0FF1F10B5044688
:1015700021460820FFF790FBE01C81B20C20FFF70A
:101580008BFB10BD70B5044626683046FEF7C1FDE2
:10159000201D40F00105A84770BD00BFFEE7000018
:1015A00010B52A48D0F8BC0100B910BD2748D0F8C2
:1015B000BC01212843D00CDC03281FD004DC012807
:1015C00010D0022840D111E015281FD016283BD199
:1015D00027E02D2834D05B2833D05F2832D0622812
:1015E00032D130E006201A4908802DE019480088E1
:1015F000002802DD06201849088025E014480088EC
:10160000002802DD0620134908801DE012480088EA
:10161000002805DD42F6E06000F06CFE01F01CFFE2
:1016200012E00D480088002808DD1620FFF79EFF15
:1016300042F6E06000F05EFE01F00EFF04E003E021
:1016400002E001E000E000BF00BFAEE7102E002086
:101650002A0000202C0000202E0000200020094934
:101660008880C8800881412081F80103002081F82A
:10167000020381F8030381F8040305200880002099
:10168000488070471C3100202DE9F05F82460C46EF
:1016900093461D46E078A17800EB012086B2607980
:1016A000217900EB01201FFA80F87004070C0B4829
:1016B00000EB070920782870607868704FEA48408E
:1016C000010CAA1C484602F0C5FB032202EB4800AD
:1016D00081B2284602F03EFCBDE8F09F102E0020AB
:1016E0002DE9F04104460E461748D0F8C001C1B2BA
:1016F0002078814201D0BDE8F081022E08DA012174
:10170000204602F03AFC012110A002F036FCF2E77C
:10171000207800F00307B01E81B22046FFF756FD87
:101720000546A01910F8010CA11911F8021C00EBD4
:101730000121A94200D0DEE7B01E82B22146384620
:1017400002F0A2FBD7E70000102E0020800000006E
:101750000021234A5180114691F8011341292AD0D2
:10176000422914D0432925D1114691F8041369B9AF
:1017700011460989FA2909DA11460A8901F5017128
:10178000885417490989491C154A118125E01449D3
:1017900091F8031369B91249C988FA2909DA10497D
:1017A000CA8801F2071188540D49C988491C0C4A9E
:1017B000D18012E000BF0A4991F8021361B90849CB
:1017C0008988FA2908DA06498A880A3188540A3948
:1017D0008988491C024A918000BF00BF7047000001
:1017E0001C3100202148408820490988884237DD83
:1017F0001E4890F80103412804D042280ED0432807
:1018000024D117E019488088002806DD42201749B6
:1018100081F80103012081F802031CE01348C0880D
:10182000002806DD4320114981F80103012081F8D9
:10183000030310E00D480089002806DD41200B4914
:1018400081F80103012081F8040304E041200749E5
:1018500081F8010300BF00BF00200449488004E074
:1018600002484088401C0149488070471C310020D4
:101870002DE9F05F83460C461D46E078A17800EB29
:10188000012086B26079217900EB01201FFA80F8EF
:1018900094F806907004070C0B4800EB070A08F058
:1018A000FF025146E01D02F041FB2078287060786D
:1018B0006870AA1C4146304602F0DBFA0621284631
:1018C00002F048FBBDE8F09F102E0020704700009A
:1018D00070B5002100230F22C4780CB3164C246885
:1018E00004F4E064C4F5E064210AC1F10403CA40D1
:1018F000447804FA03F184781440214309010F4C21
:101900000678A155047804F01F050124AC40057841
:101910006D114FF0E02606EB8505C5F8004109E0A2
:10192000047804F01F040125A540054C06787611C3
:1019300044F8265070BD00000CED00E000E400E02B
:1019400080E100E002490143024A11607047000053
:101950000000FA050CED00E01D481E481E481F4817
:101960001F4820482048214821482248224823482F
:1019700023482448244825482548264826482748FF
:10198000274828482848294829482A482A482B48CF
:101990002B482C482C482D482D482E482E482F489F
:1019A0002F4830483048314831483248324833486F
:1019B000334834483448354835483648364837483F
:1019C0003748384838483948394800BF7047000020
:1019D000684000086C40000872400008744000082D
:1019E0007040000876400008784000087A400008FF
:1019F0007C4000087E4000088040000882400008CB
:101A00008440000886400008884000088A4000089A
:101A10008C4000088E40000890400008924000086A
:101A20009440000896400008984000089A4000083A
:101A30009C4000089E400008A0400008A24000080A
:101A4000A4400008A6400008A8400008AA400008DA
:101A5000AC400008AE400008B0400008B2400008AA
:101A6000B4400008B6400008B8400008BA4000087A
:101A7000BE400008C0400008C2400008C440000842
:101A8000242A0020A42D0020C8400008CA400008D5
:101A9000CC400008CE400008D0400008D2400008EA
:101AA000D4400008D6400008D8400008C6400008CE
:101AB000DA4000082DE9F04104460D46164600279D
:101AC0001CB904203070BDE8F08115B90C203070CD
:101AD000F9E71148007810B112203070F3E7207850
:101AE000012808D0022807D0032802D0042804D1F6
:101AF00000E000BF00BF00BF02E001203070E2E75D
:101B000000BFFEF71FFB074665613846FEF71EFB68
:101B100000203070D7E700007500002010B500F0FD
:101B200019F800F0A9FF00F0D1FF00F0F1FF00F07C
:101B300073FF00F045FF01F085F801F0AFF801F008
:101B400027F801F04DF800F0E9FC00F009F8FFF784
:101B500003FF10BD00200149088070475800002095
:101B60007047000010B500241A480078012830D1D1
:101B7000FEF7E8FA04461848007820B116480078C5
:101B8000401E1549087014480078F8B913480078C9
:101B9000E0B901F0E5F812481249097850F821003F
:101BA000114908600F4800781049097888420DD023
:101BB0000D480068C06B401C0B490968C8630C489D
:101BC0000068401C0A490860FEF7D8FA2046FEF774
:101BD000BDFA10BD820000207500002076000020B4
:101BE000B41F002078000020900000207700002023
:101BF0005C00002010B500240B480078012811D1AA
:101C0000FEF7A0FA04460948007840B90848007871
:101C1000FF2804D206480078401C05490870204679
:101C2000FEF794FA10BD000082000020750000202D
:101C30007600002010B5002413480078012821D137
:101C4000FEF780FA044611480078C0B10F480078CA
:101C5000401E0E4908700846007860B90C480078AC
:101C600028B92046FEF772FA01F040F80AE0204653
:101C7000FEF76CFA06E02046FEF768FA02E020461E
:101C8000FEF764FA10BD00008200002076000020FC
:101C90007500002070B5044600261048007808B191
:101CA000002070BDFEF74EFA06460D480568006834
:101CB00020B10B4800684068094908603046FEF7CB
:101CC00045FA4DB1032028702C810020686005A0E2
:101CD0006861284600F066FE2846E2E775000020AD
:101CE000600000203F0000002DE9F04104460D4651
:101CF000164600271CB904203070BDE8F08120781A
:101D0000032802D001203070F7E73248007810B184
:101D100002203070F1E73048007810B10D203070AB
:101D2000EBE7FEF70FFA0746208940B12089401EF5
:101D300020813846FEF70AFA00203070DDE7274898
:101D4000006890F8340040F001002449096881F8E7
:101D5000340000202149096881F835001F480068D7
:101D60000563204600F0DCFD3846FEF7EFF900F091
:101D7000BDFFFEF7E7F907461848006890F8350000
:101D800020B1012809D0022806D102E000203070DD
:101D90000BE00E20307008E000BF21460F480068BD
:101DA00000F07EFD0A20307000BF00BF00200B490C
:101DB000096881F834000949096881F83500074944
:101DC0000968C8610549096808623846FEF7BEF926
:101DD00093E70000750000207600002088000020B6
:101DE00070B5044600250CB9042070BD2078032886
:101DF00001D00120F9E7FEF7A5F90546A07A60B108
:101E0000002301221946204600F0F6FC2846FEF782
:101E10009DF900F06BFF0020E7E720894FF6FF7186
:101E2000884207D22089401C20812846FEF78EF97F
:101E30000020DAE72846FEF789F93320D5E70000CD
:101E400010B50B48007890B900F08AFF0948007877
:101E50000949087009480749097850F821000849DC
:101E600008600846006807490860FEF772F910BD6F
:101E7000820000207800002077000020B41F00209E
:101E8000900000208800002010B50024022000F0FF
:101E900031FAFEF757F9044600200B490860204646
:101EA000FEF754F9C82000F025FAFEF74BF9044676
:101EB000054800680549086001200549087020466A
:101EC000FEF744F910BD0000840000206C000020E3
:101ED0007400002010B504462046FEF791FE10BDA8
:101EE0002DE9FE4F04460D46164698464FF0000970
:101EF000B8F13F0F02D92A20BDE8FE8FFEF722F984
:101F000081461E48007820B14846FEF71FF93C2064
:101F1000F2E71B4850F8280058BB0120184941F847
:101F200028004846FEF712F900233246294620468B
:101F300000F02CF982460023009301931A46514683
:101F40004046029300F022FF074637B90D4800785B
:101F500001280CD100F0CAFE09E0FEF7F3F8814633
:101F60000020074941F828004846FEF7EFF83846B8
:101F7000C2E74846FEF7EAF82820BDE775000020D2
:101F8000B41F0020820000202DE9F04F87B00446E6
:101F90000D4616461F46DDE912ABDDE9108900202B
:101FA00004903F2F03D92A2007B0BDE8F08FFEF739
:101FB000C9F804902248007820B10498FEF7C6F8CA
:101FC0003C20F1E71F4850F82700002832D10120BB
:101FD0001C4941F827000498FEF7B8F851464846D6
:101FE000149A01F007F8324629462046149B00F067
:101FF000CDF80690149BCDE900AB029343464A46C8
:102000003846069900F0C2FE0590059830B90E4892
:10201000007801280CD100F069FE09E0FEF792F883
:1020200004900020074941F827000498FEF78EF835
:102030000598B9E70498FEF789F82820B4E700006E
:1020400075000020B41F00208200002010B5044657
:102050002046FEF7DAFD10BD10B5FEF7D7FD10BD26
:102060002DE9F04104460D4616464FF000083F2C7E
:1020700005D9FF2C03D02A203070BDE8F08115B9B6
:102080000C203070F9E71448007810B1122030703D
:10209000F3E7FEF757F88046FF2C03D10F4800689E
:1020A00090F836400E4850F824702FB94046FEF79D
:1020B0004DF843203070E0E7012F05D14046FEF790
:1020C00045F843203070D8E73D654046FEF73EF8BE
:1020D00000203070D1E7000075000020880000204B
:1020E000B41F002010B5FEF7BFFD10BD2DE9F0476D
:1020F00004460D464FF0000A3F2C04D9FF2C02D0B5
:102100002A20BDE8F0870DB90920FAE700202860F1
:102110006860FEF717F88246FF2C03D11948006863
:1021200090F83640184850F8246026B95046FEF71B
:102130000DF84320E5E7012E04D15046FEF706F8DE
:102140004320DEE7308A10F0010F04D15046FDF73E
:10215000FDFF4520D5E74FF00008D6F80C90B76892
:102160005046FDF7F3FF01E008F1010802CF002916
:10217000FAD04FEA88002860A9EB08008000686068
:102180000020BEE788000020B41F002070B5044680
:1021900010464FF080750560051F28462C606FF0D3
:1021A0000105061F304635604FF01235061F3046D8
:1021B00035604FF00335061F304635604FF002356D
:1021C000061F304635606D10061F30463560051F0E
:1021D000284629604FF01135061F304635604FF014
:1021E0001035061F304635604FF00935061F304662
:1021F00035604FF00835061F304635604FF0073523
:10220000061F304635604FF00635061F30463560F4
:102210004FF00535061F304635604FF00435061F78
:102220003046356070BD00002DE9F04104464FF0A6
:1022300000083F2C02D14720BDE8F0813F2C03D39A
:10224000FF2C01D02A20F7E7FDF77CFF8046FF2C0A
:1022500005D12248006890F83640012508E01F4863
:10226000006890F83600A04201D1012500E0002569
:102270001B4850F8247027B94046FDF767FF4820F7
:10228000DAE7012F04D14046FDF760FF4320D3E792
:1022900097F838601348805D97F83910C943C9B280
:1022A0000840104988550846805D40B997F83A00C3
:1022B000C043C0B20C49097808400B49087097F830
:1022C000340040F0080087F834004046FDF73EFF38
:1022D000012D01D100F00AFD0020ADE788000020AB
:1022E000B41F00207A0000207900002010B5FEF70E
:1022F000BCFC10BD70B5044600261948007800B13A
:1023000070BD1848007800B1FAE73CB3FDF71AFF3A
:1023100006461548006890F838501448405D124948
:10232000096891F83910C943C9B208400F494855A6
:102330000846405D50B90C48006890F83A00C04328
:10234000C0B20B490978084009490870064800687E
:1023500004633046FDF7FAFE00F0C8FCD0E7000049
:102360007500002076000020880000207A00002000
:10237000790000202DE9F04104460D4616461F461F
:102380001B48007810B15520BDE8F081194800784D
:1023900008B13220F8E724B91DB916B90FB9542095
:1023A000F2E73B2D01D95120EEE73B2E01D9522017
:1023B000EAE7B7F57A7F01D35320E5E74FF4FA61F6
:1023C00007FB01F04910B0FBF1F14FF4616060438D
:1023D000C5EB051200EB8200304400EB4002C2EB7B
:1023E000C01001EB00184046FFF784FF0020CBE748
:1023F000750000207600002070B5002600F070F80F
:10240000FDF7A0FE064630480068401C2E490860D3
:102410003046FDF79BFE2D480078012853D12C480B
:10242000007820B1012804D0022809D103E0012559
:102430000BE0002509E0012501202549087004E092
:10244000012500202249087000BF00BF05B970BDFA
:102450002048046833E0FDF775FE0646206B50B354
:10246000206B401E2063206B28BB94F8340010F0D2
:10247000370F08D014F8340F00F0C8002070012086
:102480006070343C02E0002084F8350094F8340099
:1024900010F0080F0FD13834A0780F49097808439D
:1024A0000D49087020780D49085C6178084314F8DC
:1024B00038190A4A505464693046FDF747FE94F8CB
:1024C00036003F28C7D1C2E7A400002082000020C8
:1024D0009800002094000020790000207A0000205D
:1024E00010B5FEF7C3FB07480088401C054908806B
:1024F00008460088C82803D30020088000F004F8AC
:1025000010BD00005800002010B503480068FFF718
:1025100067FC0446204610BDB4000020F8B54FF417
:102520002071284800F084FB4021274800F080FB00
:10253000002414E0601C87B204EB8400214901EB05
:10254000C00507EB870001EBC0066420287000205F
:1025500085F82500EE601DA02862601C84B20F2C57
:10256000E8D304EB8400174901EBC0056420287010
:10257000002085F82500E86014A028620020144996
:102580000860144908801020134908800D48134939
:1025900008600120FFF77EFB114908600020FFF76B
:1025A00079FB104908606A460FA10D480068FFF7E3
:1025B00081FA6A4611A10B480068FFF77BFA00F028
:1025C00027F8F8BD242A0020A42D00203F00000099
:1025D000AC000020AA000020A8000020B8000020C5
:1025E000B0000020B400002075432F4F532D4949FF
:1025F00020546D724C6F636B0000000075432F4FC9
:10260000532D494920546D725369676E616C000007
:1026100000B587B00323002240210B48CDE90323F6
:10262000CDE901014FF6FD7300933D2300F1FC025B
:1026300000210648FFF7A8FC06AA05A13D20FFF7E8
:102640000FFD07B000BD0000A42C0020CD2600081F
:1026500075432F4F532D494920546D7200000000DF
:1026600070B5032580F82550012905D1154EC5699F
:102670003668354445610CE085692DB9114EC56950
:1026800036683544456104E00E4E85693668354448
:102690004561456905F007030B4D05EBC30425684B
:1026A0002DB920600025C5600125A58006E02268BF
:1026B0002060C2601061A5886D1CA58000250561A1
:1026C00070BD0000AC000020A42D00202DE9F843CF
:1026D00000BF00BF6A4600211A480068FFF704FBEC
:1026E000FFF788FA18480068401C17490860084638
:1026F000006800F00707154800EBC708D8F800404D
:102700001AE0E568104960690968884213D12046DB
:1027100000F01EF894F82400022804D1012120467C
:10272000FFF79EFF02E0022084F82500666816B1DC
:102730002046A168B0472C46002CE2D1FFF77AFA78
:10274000C8E70000B4000020AC000020A42D002049
:1027500030B5456905F007040D4D05EBC4031D6850
:10276000854205D1C168196039B100250D6104E0C9
:102770000169C268CA6002B11161012580F8255063
:102780000025C56005619D886D1E9D8030BD0000DF
:10279000A42D0020154909684FF4FA62B1FBF2F04C
:1027A000B0F1807F01D301211CE020F07F41491E60
:1027B0004FF0E022516100BF5117002905DA0F21C7
:1027C00009010B4A0B23D15404E00F210901094AE6
:1027D0005317D15400BF00214FF0E022916107212F
:1027E0001161002109B100BFFEE7704744000020DD
:1027F00018ED00E000E400E02DE9F04F04460D463E
:1028000016461F46A07A224911F8009004F10B00E9
:1028100010F8090011F800A00AEBC90000F0FF0B46
:102820001C4850F82B800020C8F83000C8F824500D
:1028300098F83400F143C9B2084088F8340088F8A9
:10284000357098F8340010F0080F0FD198F83A005E
:1028500011490978084310490870104810F8090018
:1028600098F8391008430D4901F8090021464046FF
:1028700000F016F8D8F8200030B14046D8F8201003
:1028800000F026F8C8F81C405846BDE8F08F00005C
:10289000DC400008B41F0020790000207A000020EE
:1028A00010B590F8382001F10B039C5C90F839309A
:1028B000DB43DBB21C4001F10B039C549B5C33B93E
:1028C0008B7A90F83A40E443E4B223408B7210BD17
:1028D000F0B510F8384F8578467838380A461146F2
:1028E000136819E003F10B073F5D6FEA060C0CF06B
:1028F000FF0C07EA0C0703F10B0C0CF80470674699
:102900003F5D3FB99F7A6FEA050C0CF0FF0C07EAB8
:102910000C079F72121D1368002BE3D1F0BD00005D
:1029200010B51D4A1268D0611B4A126892F83830FF
:1029300000F10B02D35C184A126892F83920134355
:10294000154A126892F8384000F10B021355827A4A
:10295000114B1B6893F83A301A4382720E4A126880
:1029600092F838100D4A525C0B4B1B6893F83930C3
:10297000DB43DBB21A40094B5A541A46525C52B937
:10298000054A126892F83A20D243D2B2044B1B781F
:102990001A40034B1A7010BD880000207A000020F6
:1029A0007900002000228272002105E0002300F15E
:1029B0000B0253544A1CD1B20829F7D370470000C8
:1029C0002DE9F0415021114800F032F900240DE0CA
:1029D000601C85B20D4800EB041600EB05170020C3
:1029E000307077600AA0F060601C84B2042CEFD3D2
:1029F000064800EB041600203070706004A0F06000
:102A0000024804490860BDE8F0810000E41D002090
:102A10003F0000006400002070B54FF40A711348B5
:102A200000F006F9002311E0581C86B203EB4300C6
:102A30000E4901EBC00406EB460001EBC005002087
:102A4000207065600AA06061581C83B2162BEBD31E
:102A500003EB4300054901EBC004002020706060D7
:102A600003A0606108460349086070BDBC1B0020DC
:102A70003F0000006000002000200A4908600A4969
:102A800008700A4908700A4908700A4908700A491A
:102A900008600A4908600A4908600A4908600A494A
:102AA00008707047A4000020750000207600002008
:102AB00083000020820000205C00002084000020B1
:102AC000700000206C0000207400002000210A4AE1
:102AD0001170002004E00021084A1154411CC8B2C2
:102AE0000828F8D30021064A1170064A1170064AD8
:102AF0001160064A11607047790000207A000020BA
:102B0000770000207800002090000020880000203E
:102B100070B540F69801194800F08AF84FF48071BA
:102B2000174800F085F8002313E0581CC4B203EBEB
:102B3000430000EBC300114901EBC00504EB440066
:102B400000EBC40001EBC0066E610EA02865581CA6
:102B5000C3B2182BE9D303EB430000EBC3000749D2
:102B600001EBC0050020686106A028650020064929
:102B7000086002480549086070BD0000B4200020CC
:102B8000B41F00203F000000940000208C000020B3
:102B900000B587B00323002220210B48CDE9032391
:102BA000CDE901014FF6FF7300933F2300F17C0252
:102BB00000210648FFF7E8F906AA05A13F20FFF724
:102BC0004FFA07B000BD0000341F0020052F000899
:102BD00075432F4F532D49492049646C650000000F
:102BE00000B587B00323002240210B48CDE9032321
:102BF000CDE901014FF6FE7300933E2300F1FC0284
:102C000000210648FFF7C0F906AA05A13E20FFF7FC
:102C100027FA07B000BD0000341E00202D2F000849
:102C200075432F4F532D49492053746174000000A0
:102C300004E0002200F8012B4A1E91B20029F8D1CD
:102C40007047000070B578211148FFF7F1FF0025AB
:102C50000EE005EB45000E4901EBC004681C00EBDB
:102C6000400001EBC00060600AA06061681C85B292
:102C7000042DEED305EB4500054901EBC00400200F
:102C8000606004A0606108460349086070BD0000F0
:102C90004C2900203F0000009C0000202DE9F0415D
:102CA00060211048FFF7C4FF00240DE0601C85B2CE
:102CB00004EB44000B4901EBC00705EB450001EBB9
:102CC000C0063E60601C84B2032CEFD304EB4400CA
:102CD000044901EBC007002038600846024908603B
:102CE000BDE8F081C4290020A000002010B5002418
:102CF000FDF728FA044613480078F8B9124800781E
:102D0000E0B900F02DF811481149097850F8210078
:102D1000104908600E4800780F49097888420DD0A4
:102D20000C480068C06B401C0A490968C8630B481E
:102D30000068401C09490860FDF71BFA2046FDF7B2
:102D400005FA10BD7500002076000020B41F002099
:102D50007800002090000020770000205C00002018
:102D60000649074A1278885C0649095C034A515CA7
:102D700001EBC001044A117070470000DC400008FC
:102D8000790000207A000020780000202DE9FC5F07
:102D900004460D4616461F46DDE90D9ADDF83080E3
:102DA00000200190FDF7CEF901904F48D0F800B017
:102DB000BBF1000F7ED04C49DBF81400086001988D
:102DC000FDF7C4F9CBF800508BF8364000208BF8A3
:102DD00034008BF83500CBF83000CBF80490CBF8FA
:102DE0000C80CBF80860ABF810A0ABF812708BF831
:102DF0003B00E0108BF8380004F007008BF8370038
:102E00009BF83810012088408BF83A009BF8371067
:102E1000012088408BF839000020CBF81C00CBF84B
:102E20002000CBF82800CBF82400CBF83C00CBF8EE
:102E30004400CBF84000CBF84800CBF84C002BA066
:102E4000CBF850000020009009E000220BF1540064
:102E5000009940F821200098401CC0B200900098D2
:102E60000028F2D05846FFF735F85846FFF7EEF83D
:102E7000FDF768F901901E4840F824B01D4800682D
:102E8000CBF814000020CBF818001A48006818B1DD
:102E900018480068C0F818B01648C0F800B09BF891
:102EA0003A00154909780843134908709BF838001F
:102EB000124900E012E0085C9BF8391008439BF8C7
:102EC00038100E4A50540E480078401C0C490870C7
:102ED0000198FDF73BF90020BDE8FC9F0198FDF744
:102EE00035F94220F8E700008C0000203F00000088
:102EF000B41F002094000020790000207A000020F8
:102F00008300002070B5002400BF00BFFDF71AF950
:102F1000044605480068401C034908602046FDF748
:102F200015F9FFF799F8F1E78400002070B5002447
:102F300000BF03E04FF4C870FFF7DCF919480078D0
:102F40000028F7D0184800686421B0FBF1F016495A
:102F500008600846006828B9002014490870FF205E
:102F6000FFF762F900BFFDF7EDF80446104800686E
:102F70001049086000200E4908602046FDF7E6F879
:102F80000C48006808490968B0FBF1F0C0F1640022
:102F900006490870FFF7A6F800F00EF8C820FFF702
:102FA000A9F9E0E7740000206C0000206800002010
:102FB00084000020700000207CB5002614E06946E3
:102FC0003046FFF793F8054665B9094850F82640A2
:102FD00044B1012C06D0D4E9020100EB8100A064C9
:102FE0000198E064701CC6B23F2EE8D97CBD000099
:102FF000B41F002012F0010F08D012F0020F05D00C
:1030000002E0491E002308C00029FAD170470021C0
:10301000016041608160C160C161016141618161A4
:10302000704700002DE9F04704460D46164631462C
:10303000E868FDF72BF9E860D5E90101FDF72DF906
:1030400080466868A8606E60E168E868FDF764FA29
:1030500002D2E068E86006E02169E868FDF752FA0C
:1030600001D22069E86031462068FDF726F9286121
:10307000E9686068FDF721F968614146A068FDF7DD
:103080001CF9A861D5E90401FDF700F98146A96999
:10309000FDF7FCF8074600213846FDF733FA02D267
:1030A0000020E8610BE007493846FDF735FA02D207
:1030B000C820E86103E03846FDF7EEF9E861BDE8B5
:1030C000F08700000000484310B500F037F810BD4D
:1030D00010B50446154AD16D154A1068FDF7EDF894
:1030E00014490860114A116E114A5068FDF7E5F85D
:1030F000104948600D4A516E0D4A9068FDF7DDF8A1
:103100000C49886048680021FDF7FCF904D10020D3
:103110000849C860086108E0064841680648FDF7AC
:10312000FFF80449C8600020086110BD102E00207F
:103130002C400008A81A00200000484310B50024C5
:1031400004E02046FFF7C4FF601CC4B2012CF8DB8A
:1031500010BD0000014908627047000000000E42E7
:1031600029B1064AD2690243044BDA6104E0034AFA
:10317000D2698243014BDA617047000000100240BF
:1031800029B1064A92690243044B9A6104E0034A5A
:1031900092698243014B9A6170470000001002401F
:1031A000F0B500210022002300240025002600277E
:1031B0008C46DFF864E1DEF804E00EF00C0121B18A
:1031C000042907D0082959D109E0DFF850E1C0F8F7
:1031D00000E058E0DFF848E1C0F800E053E0DFF835
:1031E00038E1DEF804E00EF47012DFF82CE1DEF8CE
:1031F00004E00EF48033920C0D2A01D0921C00E002
:10320000062233B9DFF81CE102FB0EFEC0F800E035
:1032100033E0DFF804E1DEF82CE00EF48035DFF86F
:10322000F8E0DEF82CE00EF00F0E0EF1010645B9C5
:10323000DFF8ECE0BEFBF6FE0EFB02FEC0F800E09D
:103240001BE0DFF8D4E0DEF82CE0CEF3031E0EF135
:103250000107DFF8C4E0DEF82CE0CEF3032E0EF118
:10326000020CDFF8BCE0BEFBF7FE0EFB0CFEBEFB63
:10327000F6FE0EFB02FEC0F800E004E0DFF89CE082
:10328000C0F800E000BF00BFDFF88CE0DEF804E02B
:103290000EF0F0010909DFF890E01EF80140D0F8C7
:1032A00000E02EFA04FEC0F804E0DFF86CE0DEF87F
:1032B00004E00EF4E061090ADFF86CE01EF801405A
:1032C000D0F804E02EFA04FEC0F808E0DFF848E089
:1032D000DEF804E00EF46051C90ADFF84CE01EF895
:1032E0000140D0F804E02EFA04FEC0F80CE0DFF84C
:1032F00028E0DEF804E00EF44041890BDFF828E016
:103300000EF1100E1EF80140D0F80CE0BEFBF4FEEA
:10331000C0F810E0F0BD00000010024000127A007A
:1033200040787D0100093D0030000020704770B5F5
:103330000446002507E0605D00B906E0605D00F02E
:10334000DBFC681CC5B2FF2DF5DB00BF70BD10B5FE
:1033500000F002F810BD0000002000213A4A126877
:1033600042F48032384B1A6000BF374A126802F4C8
:103370000031401C11B9B0F5A06FF6D1324A126885
:1033800012F4003F01D0012100E0002101295AD1AF
:103390002E4A126842F010022C4B1A601A4612682C
:1033A00022F003021A601A46126842F002021A6002
:1033B000254A5268244B5A601A4652685A601A4687
:1033C000526842F480625A601A46D26A204B1A4010
:1033D0001D4BDA621A46D26A1E4B1A431A4BDA6246
:1033E0001A46126842F080621A6000BF164A1268DC
:1033F00012F0006FFAD0144A526822F47C12124B79
:103400005A601A46526842F4E8125A601A46126824
:1034100042F080721A6000BF0B4A126812F0007FFF
:10342000FAD0094A526822F00302074B5A601A4642
:10343000526842F002025A6000BF034A526802F02A
:103440000C02082AF9D17047001002400020024007
:1034500000F0FEFF4406010000BF012080F3138846
:1034600000BF00BF0748006800F4E0600649084359
:10347000001D4FF0E021C1F80C0DBFF3408F00BFDD
:1034800000BFFEE70CED00E00000FA0510B5FCF708
:1034900059FE044606480078401C0549087020463D
:1034A000FCF754FEFEF7A8FFFEF75CFB10BD000022
:1034B0007500002010B51648006840F0010014495E
:1034C00008600846406813490840114948600846AA
:1034D0000068114908400E4908600846006820F459
:1034E000802008600846406820F4FE0048600846D6
:1034F000006820F0A05008604FF47F008860002032
:10350000C862FFF724FF4FF000600449086010BD57
:10351000001002400000FFF0FFFFF6FE08ED00E0A3
:1035200010B50121044800F018F818B10121024833
:1035300000F004F810BD000000040040CA430282FD
:10354000704721B1028842F00102028004E0028843
:103550004FF6FE731A400280704730B502460020D5
:1035600000230024158A05EA0103958905EA010470
:1035700013B10CB1012000E0002030BD10B51AB12C
:1035800083890B43838104E08389CC43A4B2234025
:10359000838110BD81847047002202881D4B9842B0
:1035A0000ED01D4B98420BD0B0F1804F08D01B4B72
:1035B000984205D01A4B984202D01A4B984204D137
:1035C0004FF68F731A404B881A43174B984207D017
:1035D000164B984204D04FF6FF431A40CB881A434B
:1035E00002808B8883850B8803850A4B98420BD019
:1035F000094B984208D00E4B984205D00D4B98428B
:1036000002D00D4B984201D10B7A038601238382AD
:1036100070470000002C01400034014000040040CD
:1036200000080040000C0040001000400014004062
:1036300000400140004401400048014038B500BF4F
:10364000C820FEF757FEFDF737FF0120FEF722FBEB
:103650000649086000BF6A46002105480068FEF779
:1036600043FB0420FEF746FEF5E7000018000020AB
:103670002000002010B500BF00BF6420FEF73AFE16
:10368000FBE710B500BF00BF6420FEF733FEFBE789
:1036900010B500BFC820FEF72DFE00BFC820FEF702
:1036A00029FEFBE710B500BF322300221146104669
:1036B000FEF760FEF8E710B500BF64230122002189
:1036C0000846FEF757FE6423012200210846FEF754
:1036D00051FEF2E7F8B500BFC820FEF70BFE00BFB1
:1036E0006A46002127480068FEF7FEFA002434E00D
:1036F0002548D0F8E400254901EB44110860244A2C
:1037000052F82410214A02EB44121068FCF7C5FD60
:1037100005461E4800EB44112A461E48FFF782FC6E
:103720001948FC3050F8240078B1012802D0022852
:103730000AD108E0154800EB4410C06981B2164870
:1037400040F8241006E005E000BF0021124840F8D0
:10375000241000BF00BF601CC4B2082CC8DB0B489B
:1037600000690949886709484069C867074880694E
:10377000C1F880000548C069C1F884001420FEF734
:10378000B9FDADE724000020102E0020BC1A002057
:10379000881A0020A81A0020842F002010B500BF2E
:1037A00000201149087011490880FDF76DFB1420B5
:1037B000FEF7A0FDFDF752FF4FF4C870FEF79AFD2B
:1037C00000BF0420FEF796FDFDF718FB06480078C1
:1037D00000F00F0050300649C1F8C001FEF702F8B2
:1037E000FDF72EFDEDE7000028000020BC000020C2
:1037F000102E002070B500BF00240FE002211D48EC
:10380000FDF7DFFC6420FEF775FD02211948FDF786
:10381000DAFC6420FEF76EFD601CC4B20A2CEDDBFE
:1038200002211448FDF7CFFC00BF00BF0221114860
:10383000FDF7C9FC4FF4FA70FEF75CFD02210D485C
:10384000FDF7BFFC4FF4FA70FEF754FD0A4800780C
:10385000002804DD08480078401E07490870074822
:1038600000780028E1DD05480078401E0349087013
:10387000DBE70000000801401000002011000020DC
:1038800070B500BF4FF47A70FEF734FD00BF14200E
:10389000FEF730FD601C84B2142C04DB00240748C2
:1038A0000068FEF79DFA681C85B2322DEFDB00251B
:1038B00003480068FEF794FAE9E7000024000020BE
:1038C0002000002030B591B000BF29480990001DAC
:1038D0000190001D0A90001D0290001D0B90001D1C
:1038E0000390001D0C90001D0490001D0D90001D04
:1038F0000590001D0E90001D0690001D0F90001DEC
:103900000790001D1090001D08904FF4FA60FEF71C
:10391000F1FCFCF72FFF0120FCF796FF00BF00240D
:1039200020E02046FDF72EFA0420FEF7E3FC1148C4
:1039300000EB84030E4810380093D0F8E83001A85B
:1039400050F82400026809A850F8240001680520F6
:10395000FDF7ACF9074850F82410074840F8241048
:10396000601CC4B2082CDCDB1420FEF7C3FCD6E7D5
:10397000202E0020881A0020642F00207CB500BF74
:10398000C825C820FEF7B6FC00BF002410E01DF8D3
:103990000400002806DD1DF80400401EC0B20DF82A
:1039A000040003E00021204600F000FA601CC4B2CD
:1039B000082CECDB002D02DD681EC5B215E0C82521
:1039C000002410E00B4850F82400C0B20DF80400A9
:1039D0000848783850F8240018B10121204600F03A
:1039E000E5F9601CC4B2082CECDB0220FEF782FC77
:1039F000CBE70000842F002010B500F001F810BDC7
:103A000038B5FCF7F5FB05462D480078401C2C49DD
:103A100008702846FCF7F0FB40F22551294800F0D9
:103A20008BF8B0B1274800F041F9C4B22046FDF749
:103A30008FFE244800F03AF9C4B223464FF487724F
:103A400021492248FCF73EFF40F225511D4800F075
:103A500058F840F227711B4800F06EF8E8B11C4896
:103A6000008848B900201B490870002240F22771E5
:103A7000144800F08BF810E04FF480711648FDF701
:103A8000A0FB6B464FF4877214491148FDF7BAFB4F
:103A90009DF800100B4800F00EF940F2266109482D
:103AA00000F04AF848B14FF480710B48FDF78BFBEA
:103AB00040F22661034800F024F8FEF753F838BDC1
:103AC0007500002000380140C803002002000020DB
:103AD000080000200000002000080140DA04002057
:103AE00010B5012240F22771044800F04FF801227E
:103AF00040F22661014800F049F810BD003801404D
:103B0000704710B500220023A1F510646A3C00D173
:103B100000BF0A1201249440A3B2DC43048010BD0C
:103B200021B1828942F40052828104E082894DF6FB
:103B3000FF731A408281704770B50246002300244B
:103B400000250020A1F510666A3E00D100BFC1F338
:103B5000421501F01F04012606FA04F4012D02D1DA
:103B60009689344006E0022D02D1168A344001E0E5
:103B7000968A34400B12012606FA03F31688334066
:103B800014B10BB1012000E0002070BDF0B500249D
:103B9000002500260023A1F510676A3F00D100BF71
:103BA0000346C1F3421401F01F05012707FA05F689
:103BB000012C01D10C3304E0022C01D1103300E0C0
:103BC00014331AB11F6837431F6002E01F68B74300
:103BD0001F60F0BD2DE9F04786B004460D46002673
:103BE000002700BFB146B246A88900B100BFA24677
:103BF000268A4CF6FF700640E88806432682A6898E
:103C00004EF6F3100640A8882989084369890843BD
:103C10000643A681A68A4FF6FF400640A8890643C0
:103C2000A68201A8FFF7BCFA54461F48824501D17D
:103C3000049F00E0039FA08910F4004F08D007EB19
:103C4000C70000EB071029684900B0FBF1F807E056
:103C500007EBC70000EB071029688900B0FBF1F8FB
:103C60006420B8FBF0F006013009642101FB1089E3
:103C7000A08910F4004F09D0322101EBC900642162
:103C8000B0FBF1F000F00700064308E0322101EB41
:103C900009106421B0FBF1F000F00F00064326810B
:103CA00006B0BDE8F0870000003801400146888872
:103CB000C0F308007047C1F308028280704700001B
:103CC00010B5FCF73FFA04460020084908704FF48D
:103CD00087710748FDF7D2F84FF487710548FDF763
:103CE000CDF82046FCF732FA10BD0000000000209D
:103CF0000800002002000020F8B5044600252548F1
:103D0000008803280DDD0A2603E00220FEF7F2FA00
:103D1000761E204840881F498988884201D1002E9C
:103D2000F3D106B90125FCF70DFA074623464FF4F7
:103D3000877219491748FCF7C5FD3846FCF706FAA3
:103D400016480078F8B9FCF7FDF907466B464FF4C2
:103D5000877211490F48FDF755FA88B101200F49C4
:103D6000087001020E48FDF72CFA9DF800100D486E
:103D7000FFF7A1FF012240F227710A48FFF706FF73
:103D80003846FCF7E3F90DB9012000E0002080B2CD
:103D9000F8BD000008000020DA0400200000002028
:103DA000000801400038014000BFFEE770B504463E
:103DB0000D46082C49D2DFE804F0040F1A25303BE9
:103DC000464725B101212248FDF7FBF903E0012117
:103DD0001F48FDF7F8F938E025B102211C48FDF72E
:103DE000F0F903E002211A48FDF7EDF92DE025B1C5
:103DF00004211748FDF7E5F903E004211448FDF715
:103E0000E2F922E025B108211148FDF7DAF903E0D3
:103E100008210F48FDF7D7F917E025B110210C480C
:103E2000FDF7CFF903E010210948FDF7CCF90CE0CC
:103E300025B120210648FDF7C4F903E020210448FC
:103E4000FDF7C1F901E000E000BF00BF70BD000058
:103E5000001401401170521C08E08B1E99B2437887
:103E60001370521C03781370521C801C0229F4DA60
:103E7000704703121370521C1070521C0B121370F7
:103E8000521C11707047000070B504460D4616466E
:103E90006878012806D0032810D0052808D01028FB
:103EA00021D112E032462946204600F023F81BE0DB
:103EB00032462946204600F02BF815E00B4B3246DF
:103EC00029462046FDF7E0FB0EE0084B3246294626
:103ED0002046FDF7CDFCFDF763FBFFF72FF90A2025
:103EE0000349088000E000BF00BF70BD2030002003
:103EF000BC00002070B5034614468D784E7805EB63
:103F00000625A8B20D79CE7805EB0625AAB270BDBC
:103F100070B5034614468D784E7805EB0625A8B299
:103F20000D79CE7805EB0625AAB270BD30B5002319
:103F30000DE0022404FB0304647801F8134010F838
:103F40001340022505FB03156C705C1CE3B2934221
:103F5000EFDB30BD70B504460D4629462046FDF71F
:103F600035F906463012605561194E70A81C85B2AD
:103F70002946204600F001F870BD70B504460E4693
:103F8000002504E0605DFFF7B7FE681C85B2B5420E
:103F9000F8DB70BD02E008C8121F08C1002AFAD180
:103FA00070477047002001E001C1121F002AFBD1B9
:103FB000704707E0002101E04A1C91B20829FBDBB1
:103FC000421E90B20028F5DC7047000000B587B0B3
:103FD0009DF818000690FDF7A1FAFCF705F9FDF72A
:103FE0009DFD0323002242210B48CDE9032300F568
:103FF0008272CDE90030029100210848FDF7C4FF2C
:10400000069006AA06A10320FEF72AF8FDF718FF7E
:10401000002007B000BD0000C0020020110C000805
:104020005374617274205461736B00000000164376
:1040300000000040000040410000000000000000BF
:104040000000000000000000000000000000000070
:104050000000000000000000000000000000000060
:10406000000000000000000001000000785634123B
:1040700001001700010018002802010001001000D3
:1040800014000200050001003F00010001000500CE
:10409000010018007800010004000100040018006D
:1040A00008000100040001000100010020000100DF
:1040B0001900010001004000010001000100400062
:1040C0005800D00701002301010010000100080082
:1040D0000A0028008002080040008212000001004F
:1040E00002000100030001000200010004000100C1
:1040F00002000100030001000200010005000100B0
:1041000002000100030001000200010004000100A0
:10411000020001000300010002000100060001008E
:104120000200010003000100020001000400010080
:10413000020001000300010002000100050001006F
:104140000200010003000100020001000400010060
:10415000020001000300010002000100070001004D
:104160000200010003000100020001000400010040
:10417000020001000300010002000100050001002F
:104180000200010003000100020001000400010020
:10419000020001000300010002000100060001000E
:1041A0000200010003000100020001000400010000
:1041B00002000100030001000200010005000100EF
:1041C00002000100030001000200010004000100E0
:1041D000020001000300010002000100FC41000890
:1041E00000000020C0020000740600083C430008E4
:1041F000C002002068350000A43F000801342D01F2
:104200000203040410090607080902040608ACA208
:104210004A041C291801692808C1814001C0804155
:1042200004690C2908E918A91C091A30091638096B
:104230003660092E70092F6000FF00C0C101C30362
:1042400002C2C60607C705C5C404CC0C0DCD0FCFEE
:10425000CE0E0ACACB0BC90908C8D81819D91BDB5E
:10426000DA1A1EDEDF1FDD1D1CDC14D4D515D717AE
:1042700016D6D21213D311D1D010F03031F133F35E
:10428000F23236F6F737F53534F43CFCFD3DFF3FAE
:104290003EFEFA3A3BFB39F9F83828E8E929EB2BDE
:1042A0002AEAEE2E2FEF2DEDEC2CE42425E527E76E
:1042B000E62622E2E323E12120E0A06061A163A3DE
:1042C000A26266A6A767A56564A46CACAD6DAF6F6E
:1042D0006EAEAA6A6BAB69A9A86878B8B979BB7BDE
:1042E0007ABABE7E7FBF7DBDBC7CB47475B577B72E
:1042F000B67672B2B373B17170B05090915193535E
:10430000529296565797559594549C5C5D9D5F9F2D
:104310009E5E5A9A9B5B99595898884849894B8B5D
:104320008A4A4E8E8F4F8D4D4C8C448485458747ED
:0C433000468682424383418180020040A7
:04000005080000ED02
:00000001FF
